S00D000074696D65722E73726563F6
S113000061C000007CC000007AC0000078C000001D
S113001076C0000074C0000072C0000081C20000FD
S113002049C200006CC000006AC0000068C0000043
S1130030A8C1000064C0000062C00000B9C1000093
S11300405EC000005CC000005AC0000058C0000040
S113005056C000009BC2000052C0000050C0000007
S11300604EC000004CC000004AC0000048C0000060
S113007046C0000044C000005CC1000040C0000055
S11300803EC000003CC000003AC00000EA034A043D
S1130090AA04AD041A047A04B604B604B004B6047F
S11300A0B604B604B604B604B604B604B604B6047C
S11300B0B604B604B30442065006610697065E060B
S11300C09E06A10611241FBECFEFD0E1DEBFCDBF37
S11300D011E0A0E0B1E0EAE7F0E100E00BBF02C00C
S11300E007900D92A430B107D9F722E0A4E0B1E063
S11300F001C01D92AA33B207E1F7E0D2BCC780CF9A
S1130100EBE9F0E0908195FFFDCF80939C0008958A
S1130110EBE9F0E080818823ECF780919C0008955E
S11301208A3028F4805D01C0895CEACF089580316B
S1130130D8F380E2FACFCF93C82F82958F70F0DF87
S11301408C2F8F70EDDFCF91089590910401E92FEA
S1130150F0E0ED5DFE4F80838D3049F481E090E066
S113016090932302809322021092040108959F5FCA
S11301709093040108951BBA8FEF8ABB18BA17BA7B
S113018015BA84BB12BA8BEB81BB13B812B81092A8
S113019062001092610008959093980080939900F2
S11301A0EAE9F0E0808188698083EDE9F0E080810C
S11301B086608083089586B18E6886B93E9A369AA1
S11301C0089583B7886283BF12BE88E181BF10BEE1
S11301D087B7826087BF83B78C6283BF08958FB56A
S11301E080688FBD8EB588608EBD1DBC1CBC17BCDD
S11301F016BC81E68BBD88EA8ABD8EB58B608EBD48
S113020087B7806187BF089510926A0080EA8ABF29
S113021080EC89BF0895809111019091120101979A
S113022090931201809311012FB7F8948AB59BB56E
S1130230809111019091120182309105B1F028F45E
S1130240009749F0019761F01FC08330910591F048
S11302500497A9F019C080912802909129021EC028
S113026080912C0290912D0219C0809124029091CA
S1130270250214C080912A0290912B020FC0809114
S11302803802909139020AC084E090E09093120100
S11302908093110180913802909139029BBD8ABDEF
S11302A02FBF7894089580911101909112010196C5
S11302B090931201809311012FB7F8948AB59BB5DE
S11302C0809111019091120182309105B1F028F4CE
S11302D0009749F0019761F01FC08330910591F0B8
S11302E00497A9F019C080912802909129021CC09A
S11302F080912C0290912D0217C08091240290913C
S1130300250212C080912A0290912B020DC0809187
S113031038029091390208C0109212011092110112
S113032080912802909129029BBD8ABD2FBF7894A9
S113033008951F920F920FB60F9211240BB60F92CD
S11303402F933F934F935F936F937F938F939F93D9
S1130350AF93BF93EF93FF93DBDEF7DEFF91EF9153
S1130360BF91AF919F918F917F916F915F914F91C9
S11303703F912F910F900BBE0F900FBE0F901F90C7
S113038018951F920F920FB60F9211248F939F937B
S113039080911F01909120010196909320018093F8
S11303A01F019F918F910F900FBE0F901F90189572
S11303B01F920F920FB60F9211242F933F934F93D6
S11303C05F938F939F9320911B0130911C01211502
S11303D03105A1F480910D0190910E0190930301D8
S11303E08093020180910F0190911001909301017B
S11303F08093000110921A011092190180910B014F
S113040090910C01019690930C0180930B0100973D
S113041081F440910D0150910E01509303014093DA
S1130420020140910F01509110015093010140933A
S1130430000140910201509103018417950781F452
S11304402F5F3F4F30931C0120931B0120910D011E
S113045030910E01820F931F909303018093020148
S1130460809100019091010120911B0130911C01A8
S113047082179307A1F42091190130911A012F5F7B
S11304803F4F30931A012093190120910F013091AD
S11304901001820F931F90930101809300019F919B
S11304A08F915F914F913F912F910F900FBE0F90BD
S11304B01F9018951F920F920FB60F9211240BB62E
S11304C00F922F933F934F935F936F937F938F93E9
S11304D09F93AF93BF93EF93FF9380910901909102
S11304E00A01019690930A018093090103972CF065
S11304F0DADE10920A0110920901FF91EF91BF9187
S1130500AF919F918F917F916F915F914F913F91A7
S11305102F910F900BBE0F900FBE0F901F90189548
S11305201F920F920FB60F9211240BB60F922F93B6
S11305303F934F935F936F937F938F939F93AF9367
S1130540BF93EF93FF938091070190910801019667
S1130550909308018093070103972CF05CDE1092BE
S1130560080110920701FF91EF91BF91AF919F9104
S11305708F917F916F915F914F913F912F910F9048
S11305800BBE0F900FBE0F901F9018951F920F92E5
S11305900FB60F9211240BB60F922F933F934F93E4
S11305A05F936F937F938F939F93AF93BF93EF93D7
S11305B0FF9380910501909106018130910509F125
S11305C01CF4892B41F066C08230910579F10397C0
S11305D009F446C05FC084B195B19C01220F331F5A
S11305E0820F931F880F991F90931801809317010E
S11305F081E487B981E090E090930601809305013E
S113060049C024B135B14AE1429FC001439F900DD6
S11306101124909316018093150182E487B982E036
S113062090E0909306018093050134C084B195B1A4
S11306309C01220F331F880F991F880F991F880F61
S1130640991F820F931F90930E0180930D0183E4F1
S113065087B983E090E090930601809305011AC066
S113066064B175B180E090E00FD42AE037ED43E245
S11306705DE398D420E030E040EA52E475D3D8D367
S11306807093100160930F0180E487B91092060102
S113069010920501369AFF91EF91BF91AF919F910E
S11306A08F917F916F915F914F913F912F910F9017
S11306B00BBE0F900FBE0F901F90189588EA91E61D
S11306C0909329028093280284EC99E090932D0260
S11306D080932C0289EF90E090932502809324026A
S11306E088E190E090932B0280932A0284E090E0CA
S11306F09093390280933802F8943DDD87E690E0C8
S11307004BDD59DD5EDD6BDD7FDD789410921A01DF
S11307101092190110921C0110921B0120E030E08C
S1130720C3E2D1E004E211E00F2EFDE1EF2EF1E08F
S1130730FF2EF02D0F2EF1E2AF2EF1E0BF2EF02DA3
S1130740CC24CA94D12C0F2EF6E22F2EF2E03F2EA9
S1130750F02D0F2EF3E18F2EF1E09F2EF02D0F2EB2
S1130760F5E14F2EF1E05F2EF02D0F2EF7E16F2E05
S1130770F1E07F2EF02D8FE891E00197F1F700C0B2
S1130780000080912202909123020197A1F7F901C0
S1130790ED5DFE4F80818D3009F0E2C288818234A4
S11307A009F4E7C018F4813441F0D1C2833409F468
S11307B056C2843409F459C2CAC2F801808190E057
S11307C0FC01E154F109E531F10508F0CFC0EA5B21
S11307D0FF4F4BC480911801AEDCF3018081ABDC88
S11307E08091170190911801AC014F7055279C011D
S11307F0232F332722952F70420F531F292F33277E
S11308002F703327240F351F929582958F70892777
S11308109F7089278F709927820F931F9601281B39
S1130820390BC901309327022093260284DC8AE223
S113083067DC8FC2809118017EDCF30180817BDC50
S11308408091170190911801AC014F7055279C01BC
S1130850232F332722952F70420F531F292F33271D
S11308602F703327240F351F929582958F70892717
S11308709F7089278F709927820F931F9601281BD9
S1130880390BC901309327022093260254DC8AE2F3
S113089037DC5FC2809116014EDCF20180814BDCB3
S11308A08091150190911601AC014F7055279C0160
S11308B0232F332722952F70420F531F292F3327BD
S11308C02F703327240F351F929582958F708927B7
S11308D09F7089278F709927820F931F9601281B79
S11308E0390BC901309327022093260224DC8AE2C3
S11308F007DC2FC2809116011EDCF20180811BDC13
S11309008091150190911601AC014F7055279C01FF
S1130910232F332722952F70420F531F292F33275C
S11309202F703327240F351F929582958F70892756
S11309309F7089278F709927820F931F9601281B18
S1130940390BC9013093270220932602F4DB8AE293
S1130950D7DBFFC18AE2D4DBFCC18AE2D1DBF9C177
S11309608AE2CEDBF6C18AE2CBDBF3C18FE3C8DBDC
S1130970F0C1F8018081833409F46BC130F481340F
S113098071F0823409F47CC067C1863409F47BC0F9
S1130990883409F4EBC0853409F05EC103C08AE2EF
S11309A0AFDBD7C140911F015091200150931E012C
S11309B040931D0120910B0130910C0130932201D1
S11309C020932101852F9927FA01EF70FF27BA019F
S11309D0672F772762956F70E60FF71FBC016F7062
S11309E077276E0F7F1F529542954F7045275F7092
S11309F045274F705527460F571FF901EF70FF2702
S1130A00B901672F772762956F70E60FF71F632F81
S1130A1077276F7077276E0F7F1F329522952F707F
S1130A2023273F7023272F703327260F371F240FC8
S1130A30351F240F351F420F531F9601241B350BFE
S1130A40309327022093260276DBF701808173DB43
S1130A5080911E0170DBF70180816DDB80911E01A6
S1130A606ADBF701808167DB8091220164DBF50199
S1130A70808161DBF10180815EDB8AE241DB69C157
S1130A808AE23EDB66C190911F0180912001909320
S1130A901D0180931E0120910B0130910C013093B4
S1130AA022012093210147DBF701808144DB8091FF
S1130AB01E0141DBF70180813EDB80911E013BDB9F
S1130AC0F701808138DB8091220135DBF5018081DB
S1130AD032DB80911D0190911E01AC014F705527AE
S1130AE09C01232F332722952F70420F531F292F48
S1130AF033272F703327240F351F929582958F70DB
S1130B0089279F7089278F709927280F391F809113
S1130B10210190912201BC016F707727AC01452F10
S1130B20552742954F70640F751F492F55274F70F5
S1130B305527460F571F929582958F7089279F706E
S1130B4089278F709927840F951F820F931F820F17
S1130B50931F280F391FC601821B930B9093270202
S1130B6080932602E8DA8AE2CBDAF3C090911F017F
S1130B708091200190931D0180931E0120910B010F
S1130B8030910C013093220120932101D4DAF70132
S1130B908081D1DA80911E01CEDAF7018081CBDA2F
S1130BA080911E01C8DAF7018081C5DA80912201A3
S1130BB0C2DAF5018081BFDA80911D0190911E0196
S1130BC0AC014F7055279C01232F332722952F709A
S1130BD0420F531F292F33272F703327240F351F1C
S1130BE0929582958F7089279F7089278F70992796
S1130BF0280F391F8091210190912201BC016F704F
S1130C007727AC01452F552742954F70640F751F08
S1130C10492F55274F705527460F571F9295829598
S1130C208F7089279F7089278F709927840F951F4C
S1130C30820F931F820F931F280F391FC601821B37
S1130C40930B909327028093260275DA8AE258DA8E
S1130C5080C08AE255DA7DC08FE352DA7AC0F801A7
S1130C608081843411F48AE24BDAF801808190E0C7
S1130C70FC01E154F109E730F10508F065C0E55ADB
S1130C80FF4FF3C180911B0180FD05C081E038DA7C
S1130C908AE236DA5EC080E033DA8AE231DA59C0B9
S1130CA08091190180FD05C081E02ADA8AE228DA00
S1130CB050C080E025DA8AE223DA4BC08AE220DAE7
S1130CC048C090911B0180911C0190931301809363
S1130CD0140131DAF40180812EDA809113019091AC
S1130CE01401AC014F7055279C01232F3327229503
S1130CF02F70420F531F292F33272F703327240FB0
S1130D00351F929582958F7089279F7089278F70E0
S1130D109927820F931F9601281B390BC901309321
S1130D2027022093260207DA8AE2EAD912C0109237
S1130D301C0110921B018AE2E3D90BC08AE2E0D9BC
S1130D4008C08AE2DDD905C08FE3DAD902C08FE397
S1130D50D7D9109223021092220220E030E00BCD6A
S1130D602F5F3F4F08CD5058BB27AA270ED0E0C0B5
S1130D70D1D030F0D6D020F031F49F3F11F41EF4DE
S1130D80C6C00EF4E095E7FBBCC0E92FE2D080F3C7
S1130D90BA17620773078407950718F071F49EF574
S1130DA0FAC00EF4E0950B2EBA2FA02D0B01B90159
S1130DB090010C01CA01A0011124FF27591B99F0CD
S1130DC0593F50F4503E68F11A16F040A22F232FD9
S1130DD0342F4427585FF3CF469537952795A79529
S1130DE0F0405395C9F77EF41F16BA0B620B730BD0
S1130DF0840BBAF09150A1F0FF0FBB1F661F771F41
S1130E00881FC2F70EC0BA0F621F731F841F48F4F5
S1130E10879577956795B795F7959E3F08F0B3CF7B
S1130E209395880F08F09927EE0F97958795089565
S1130E3098D088F09F5790F0B92F9927B751A0F018
S1130E40D1F0660F771F881F991F1AF0BA95C9F75A
S1130E5012C0B13081F09FD0B1E008959CC0672FDB
S1130E60782F8827B85F39F0B93FCCF3869577950A
S1130E706795B395D9F73EF49095809570956195F3
S1130E807F4F8F4F9F4F0895E89409C097FB3EF41E
S1130E9090958095709561957F4F8F4F9F4F9923C3
S1130EA0A9F0F92F96E9BB279395F6958795779541
S1130EB06795B795F111F8CFFAF4BB0F11F460FF01
S1130EC01BC06F5F7F4F8F4F9F4F16C0882311F059
S1130ED096E911C0772321F09EE8872F762F05C06D
S1130EE0662371F096E8862F70E060E02AF09A9508
S1130EF0660F771F881FDAF7880F9695879597F9FD
S1130F00089597F99F6780E870E060E008959FEF87
S1130F1080EC089500240A9416161706180609068C
S1130F20089500240A94121613061406050608955B
S1130F30092E0394000C11F4882352F0BB0F40F4E3
S1130F40BF2B11F460FF04C06F5F7F4F8F4F9F4F23
S1130F50089557FD9058440F551F59F05F3F71F0A5
S1130F604795880F97FB991F61F09F3F79F087950C
S1130F700895121613061406551FF2CF4695F1DF95
S1130F8008C0161617061806991FF1CF8695710525
S1130F90610508940895E894BB2766277727CB0159
S1130FA097F908950BD0C4CFB5DF28F0BADF18F055
S1130FB0952309F0A6CFABCF1124EECFCADFA0F35F
S1130FC0959FD1F3950F50E0551F629FF001729FDA
S1130FD0BB27F00DB11D639FAA27F00DB11DAA1FF9
S1130FE0649F6627B00DA11D661F829F2227B00D46
S1130FF0A11D621F739FB00DA11D621F839FA00DD1
S1131000611D221F749F3327A00D611D231F849F20
S1131010600D211D822F762F6A2F11249F57504077
S11310208AF0E1F088234AF0EE0FFF1FBB1F661F12
S1131030771F881F91505040A9F79E3F510570F0CB
S113104060CFAACF5F3FECF3983EDCF386957795AB
S11310506795B795F795E7959F5FC1F7FE2B880FC6
S1131060911D9695879597F90895EE0FFF1F0590AA
S10D1070F491E02D0994F894FFCFE9
S107107A64006400A6
S9030000FC
