:100000005CC000006BC0000069C0000067C0000059
:1000100065C0000063C0000061C000005FC0000058
:100020005DC000000EC3000059C0000057C00000B2
:10003000EEC2000053C0000051C00000C7C2000063
:100040004DC000004BC0000049C0000047C0000088
:1000500045C0000043C0000041C000003FC0000098
:100060003DC000003BC0000039C0000037C00000A8
:1000700035C0000033C0000043C300002FC00000A3
:100080002DC000002BC0000029C00000084AD73B4B
:100090003BCE016E84BCBFFDC12F3D6C74319ABD57
:1000A00056833DDA3D00C77F11BED9E4BB4C3E917B
:1000B0006BAAAABE000000803F0011241FBECFEF34
:1000C000D0E1DEBFCDBF22E0A0E0B1E001C01D92D3
:1000D000A236B207E1F752D40C94EF0891CFEBE9C6
:1000E000F0E0908195FFFDCF80939C000895EBE9AF
:1000F000F0E080818823ECF780919C0008958A309D
:1001000040F490E3980F02C097E3980F892FE7CF50
:1001100008958031C8F3FACFCF93C82F82958F709E
:10012000EEDF8C2F8F70EBDFCF910895909100015F
:10013000E92FF0E0EA5FFE4F80838D3049F481E0E3
:1001400090E09093060280930502109200010895BA
:100150009F5F909300010895889A85E18A95F1F751
:100160000000899A85E18A95F1F70000889885E179
:100170008A95F1F70000899885E18A95F1F70000EA
:1001800010920501819905C0809105018F5F8093D0
:100190000501809905C0809105018F5F809305015D
:1001A00085E18A95F1F7000085E18A95F1F7000075
:1001B00085E18A95F1F7000085E18A95F1F7000065
:1001C00008958998889891989098C6DFC5CF08952A
:1001D000899A85E18A95F1F70000889A85E18A95E8
:1001E000F1F70000089598E0882314F0899A01C07F
:1001F000899825E12A95F1F70000889825E12A954C
:10020000F1F70000889A880F915071F7899885E17D
:100210008A95F1F70000889825E12A95F1F700000A
:1002200080B3889A869581700895282F899898E0E0
:1002300080E0880F889835E13A95F1F700008199C0
:100240008160889A35E13A95F1F70000915089F77D
:10025000211102C0899A01C0899895E19A95F1F718
:100260000000889835E13A95F1F70000889A95E109
:100270009A95F1F7000089980895CF93DF93D82FCE
:10028000C62FA6DF80EDAFDF8D2FADDF8C2FABDF6C
:1002900063DFDF91CF91089567E089E1EEDF60E0F1
:1002A0008AE1EBDF68E18BE1E8DF60E08CE1E5DF2C
:1002B00060E08DE1E2DF60E08EE1DFDF60E08FE1B2
:1002C000DCDF60E080E2D9DF60E081E2D6DF60E081
:1002D00082E2D3DF60E083E2D0DF60E084E2CDDF62
:1002E00060E085E2CADF60E086E2C7DF60E087E2C7
:1002F000C4DF60E088E2C1DF60E089E2BEDF60E089
:100300008AE2BBDF60E08BE2B8DF60E08CE2B5DF61
:1003100060E08DE2B2DF60E08EE2AFDF60E08FE2AE
:10032000ACDF60E080E3A9DF60E081E3A6DF60E0AE
:1003300082E3A3DF60E083E3A0DF60E084E39DDF8E
:1003400060E085E39ADF60E087E397DF60E088E3C1
:1003500094DF60E083E691DF60E084E68EDF60E0BA
:1003600085E68BDF60E086E688DF60E087E685DF94
:1003700060E088E682DF60E089E67FDF60E08AE6B1
:100380007CDF62E08BE679DF60E08CE676CF089573
:100390001FDF80ED28DF8BE326DFDEDE19DF81ED56
:1003A00022DF80E042DF80934C0280E03EDF8093DA
:1003B0001D0280E03ADF80930B0280E036DF8093FD
:1003C0004B0280E032DF8093240281E02EDF8093B5
:1003D0005102C2DE80914C0290E0982F8827209134
:1003E0001D02820F911DAA2797FDA095BA2F809319
:1003F000420290934302A0934402B093450280913D
:100400000B0290E0982F882720914B02820F911DBC
:10041000AA2797FDA095BA2F8093170290931802F0
:10042000A0931902B0931A028091240290E0982FB1
:10043000882720915102820F911DAA2797FDA09530
:10044000BA2F8093290290932A02A0932B02B09393
:100450002C020895BDDE80EDC6DE83E4C4DE7CDEC2
:10046000B7DE81EDC0DE80E0E0DE8093530280E005
:10047000DCDE8093520280E0D8DE80931F0280E0B1
:10048000D4DE8093160280E0D0DE80931C0281E0EF
:10049000CCDE80930C0260DE8091530290E0982FB6
:1004A000882720915202820F911DAA2797FDA095BF
:1004B000BA2F80933A0290933B02A0933C02B093F0
:1004C0003D0280911F0290E0982F8827209116020C
:1004D000820F911DAA2797FDA095BA2F80935802ED
:1004E00090935902A0935A02B0935B0280911C0230
:1004F00090E0982F882720910C02820F911DAA2747
:1005000097FDA095BA2F80930D0290930E02A093B1
:100510000F02B093100208955BDE80ED64DE81E48B
:1005200062DE1ADE55DE81ED5EDE80E07EDE8093E7
:10053000460281E07ADE80931B020ECE08951BBA3C
:100540008FEF8ABB18BA87BB15BA84BB12BA11BA2F
:1005500013B882B91092620080EF80936100089511
:10056000909398008093990088E980939A008EE098
:1005700080939D00089513BE10BE12BE89EF81BF07
:100580008FE083BF87B7826087BF08951EBC1DBC04
:100590001CBC82E08BBD81E78ABD19BC18BC1092DF
:1005A00079001092780017BC16BC1FBC8CE08EBD81
:1005B00087B7806187BF089515BC14BC8CE783BDE5
:1005C0008DE085BD87B7806887BF08951F920F9221
:1005D0000FB60F9211248F939F9380914D029091AB
:1005E0004E02019690934E0280934D024E9741F435
:1005F00095B380E2892785BB10924E0210924D027E
:100600009F918F910F900FBE0F901F9018951F9282
:100610000F920FB60F9211248F939F9380916002D7
:10062000909161020196909361028093600281E053
:1006300080931E029F918F910F900FBE0F901F907D
:1006400018951F920F920FB60F9211240BB60F92AE
:100650002F933F934F935F936F937F938F939F93CA
:10066000AF93BF93CF93DF93EF93FF9380913102CA
:100670008F5F809331028D3770F18091600290918D
:1006800061029093350280933402109261021092BD
:100690006002C0914F02D09150029E0140E050E0B4
:1006A0006091010170910201809103019091040118
:1006B00058D52093540230935502409356025093DC
:1006C000570210923102D0933302C093320210923B
:1006D000500210924F02FF91EF91DF91CF91BF91A5
:1006E000AF919F918F917F916F915F914F913F91CA
:1006F0002F910F900BBE0F900FBE0F901F9018956B
:100700001F920F920FB60F9211240BB60F922F93D8
:100710003F934F935F936F937F938F939F93AF9389
:10072000BF93EF93FF93E3DC01DD85B3805885BB76
:10073000FF91EF91BF91AF919F918F917F916F91B9
:100740005F914F913F912F910F900BBE0F900FBE75
:100750000F901F90189580915D02DEDC80915C0205
:10076000DBDC8DE0BCCC089580914302D5DC809128
:100770004202D2DC8DE0B3CC089580913B02CCDC08
:1007800080913A02C9DC8DE0AACC089580913302B1
:10079000C3DC80913202C0DC8DE0A1CC0895809151
:1007A0002602BADC80912502B7DC8DE098CC089552
:1007B00080911802B1DC80911702AEDC8DE08FCC05
:1007C000089580915902A8DC80915802A5DC8DE043
:1007D00086CC0895809135029FDC809134029CDCA8
:1007E0008DE07DCC08958091370296DC80913602B1
:1007F00093DC8DE074CC089580912A028DDC809189
:1008000029028ADC8DE06BCC089580910E0284DC95
:1008100080910D0281DC8DE062CC089580915502BB
:100820007BDC8091540278DC8DE059CC08950F93E5
:100830001F9300914602112707FD1095102F0027E6
:10084000222717FD2095322F60911B02862F9927B2
:1008500087FD9095A92FB92F800F911FA21FB31F5D
:10086000BC01CD0164587F4C8F4F9F4F24E531E090
:1008700040E050E076D4832F2093070230930802A3
:100880004093090250930A0247DC8091070244DC3E
:100890008DE025DC1F910F9108958091080181342E
:1008A00011F459CF0895823411F45ECF0895833442
:1008B00011F463CF0895843411F468CF08958FE361
:1008C0000EDC109206021092050208958091080134
:1008D000813411F464CF0895823411F469CF0895FE
:1008E000833411F46ECF0895843411F473CF0895D6
:1008F0008FE3F5DB109206021092050208958091B5
:100900000801813411F46FCF0895823411F474CF4B
:100910000895833411F479CF0895843411F47ECF8F
:1009200008958FE3DCDB1092060210920502089511
:1009300080910801813411F47ACF08958FE3CFDBE1
:1009400010920602109205020895809107018835E1
:1009500011F4A3CF0895893511F4B8CF08958A35DD
:1009600011F4CDCF0895843511F4E2CF08958FE3CB
:10097000B6DB10920602109205020895CF93DF9322
:10098000CDB7DEB760970FB6F894DEBF0FBECDBF10
:10099000F894D5DDF0DDFADD0FDE8CE090E0E0DDEF
:1009A0002FEF83ED90E3215080409040E1F700C0AD
:1009B0000000AFEFB3EDE0E3A150B040E040E1F75D
:1009C00000C00000FEDBFFEF23ED80E3F15020408C
:1009D0008040E1F700C000009FEFA3EDB0E391502D
:1009E000A040B040E1F700C0000056DCEFEFF3EDAF
:1009F00020E3E150F0402040E1F700C000004CDC73
:100A000078941D861E861F86188A06E011E0809164
:100A10004F029091500201969093500280934F02A2
:100A200080911E02813061F515DD60910D0270919B
:100A30000E0280910F02909110021ED223E23BED34
:100A400049E75DE3D1D22AE037ED43E25CE3CCD263
:100A50009B01AC016D857E858F859889E6D06D8779
:100A60007E878F87988BD5D16093540270935502FF
:100A700080935602909357028BDC4EDD10921E023B
:100A800040904202509043026090440270904502B0
:100A90008091170290911802A0911902B0911A0248
:100AA00089839A83AB83BC83BC01CD01E5D19B01D3
:100AB000AC019AD26B017C018091290290912A02AB
:100AC000A0912B02B0912C028D839E83AF83B887B7
:100AD000BC01CD01D1D19B01AC0186D24B015C019F
:100AE0009B01AC01C701B601A0D0E5D269877A8726
:100AF0008B879C8766277727CB0164197509860940
:100B00009709BAD129853A854B855C851AD1F1D0F0
:100B100021EE3EE245E652E467D220E030E040E2DA
:100B200051E462D276D160935C0270935D0280934F
:100B30005E0290935F02C301B2019ED19B01AC01A2
:100B400053D22B013C019B01AC01C501B4016DD016
:100B5000B2D24B015C0169817A818B819C81909535
:100B60008095709561957F4F8F4F9F4F85D1A501DF
:100B70009401E7D0BED021EE3EE245E652E434D205
:100B800020E030E040E251E42FD243D160932502CF
:100B9000709326028093270290932802A30192016A
:100BA000C701B60142D087D26B017C016D817E8185
:100BB0008F81988590958095709561957F4F8F4F27
:100BC0009F4F5AD1A7019601BCD093D021EE3EE2AF
:100BD00045E652E409D220E030E040E251E404D29C
:100BE00018D1609336027093370280933802909345
:100BF00039028091050290910602019709F007CF12
:100C00001092060210920502D8018C91823511F4DF
:100C10009CDEFDCE873509F4FACE8FE360DA1092C0
:100C2000060210920502F3CE5058BB27AA270ED019
:100C30009AC18BD130F090D120F031F49F3F11F464
:100C40001EF45BC10EF4E095E7FB51C1E92F9CD186
:100C500080F3BA17620773078407950718F071F4D9
:100C60009EF5B4C10EF4E0950B2EBA2FA02D0B010A
:100C7000B90190010C01CA01A0011124FF27591BE1
:100C800099F0593F50F4503E68F11A16F040A22FE7
:100C9000232F342F4427585FF3CF46953795279558
:100CA000A795F0405395C9F77EF41F16BA0B620B57
:100CB000730B840BBAF09150A1F0FF0FBB1F661F9E
:100CC000771F881FC2F70EC0BA0F621F731F841FE1
:100CD00048F4879577956795B795F7959E3F08F007
:100CE000B3CF9395880F08F09927EE0F97958795C6
:100CF0000895DF93DD27B92FBF7740E85FE316162D
:100D0000170648075B0710F4D92F67D19F938F937D
:100D10007F936F930ED2ECE8F0E0F2D024D12F91C4
:100D20003F914F915F916CD1DD2349F09058A2EA39
:100D30002AED3FE049EC5FE3D0785D2787DFDF9164
:100D400012C10CD010C108D140F0FFD030F021F416
:100D50005F3F19F0CCC051113AC1CFC015D198F303
:100D60009923C9F35523B1F3951B550BBB27AA272C
:100D700062177307840738F09F5F5F4F220F331F9E
:100D8000441FAA1FA9F333D00E2E3AF0E0E830D06A
:100D900091505040E695001CCAF729D0FE2F27D06D
:100DA000660F771F881FBB1F261737074807AB073B
:100DB000B0E809F0BB0B802DBF01FF2793585F4FB0
:100DC0002AF09E3F510568F092C001C15F3FECF3ED
:100DD000983EDCF3869577956795B795F7959F5F75
:100DE000C9F7880F911D9695879597F90895E1E0C9
:100DF000660F771F881FBB1F621773078407BA0728
:100E000020F0621B730B840BBA0BEE1F88F7E09582
:100E1000089504D06894B111DAC00895BDD088F067
:100E20009F5790F0B92F9927B751A0F0D1F0660FD6
:100E3000771F881F991F1AF0BA95C9F712C0B130F1
:100E400081F0C4D0B1E00895C1C0672F782F882702
:100E5000B85F39F0B93FCCF3869577956795B39530
:100E6000D9F73EF490958095709561957F4F8F4F9F
:100E70009F4F0895E89409C097FB3EF490958095A4
:100E8000709561957F4F8F4F9F4F9923A9F0F92F50
:100E900096E9BB279395F695879577956795B795CE
:100EA000F111F8CFFAF4BB0F11F460FF1BC06F5FB4
:100EB0007F4F8F4F9F4F16C0882311F096E911C0C6
:100EC000772321F09EE8872F762F05C0662371F0E7
:100ED00096E8862F70E060E02AF09A95660F771FFB
:100EE000881FDAF7880F9695879597F9089597F9EF
:100EF0009F6780E870E060E008959FEF80EC0895C0
:100F0000DF93CF931F930F93FF92EF92DF927B01BA
:100F10008C01689405C0DA2EEF0172D0FE01E894CE
:100F2000A5912591359145915591AEF3EF018EDE56
:100F3000FE019701A801DA9479F7DF90EF90FF9016
:100F40000F911F91CF91DF91089500240A941616F6
:100F5000170618060906089500240A9412161306A7
:100F6000140605060895092E0394000C11F4882335
:100F700052F0BB0F40F4BF2B11F460FF04C06F5F51
:100F80007F4F8F4F9F4F089557FD9058440F551F27
:100F900059F05F3F71F04795880F97FB991F61F0FB
:100FA0009F3F79F087950895121613061406551F72
:100FB000F2CF4695F1DF08C0161617061806991FDE
:100FC000F1CF86957105610508940895E894BB27D3
:100FD00066277727CB0197F908959B01AC0160E064
:100FE00070E080E89FE3ADCE0BD0BDCFAEDF28F040
:100FF000B3DF18F0952309F07ACF7FCF1124E7CF24
:10100000C3DFA0F3959FD1F3950F50E0551F629F6A
:10101000F001729FBB27F00DB11D639FAA27F00D51
:10102000B11DAA1F649F6627B00DA11D661F829F78
:101030002227B00DA11D621F739FB00DA11D621F5D
:10104000839FA00D611D221F749F3327A00D611D7A
:10105000231F849F600D211D822F762F6A2F11245C
:101060009F5750408AF0E1F088234AF0EE0FFF1FAF
:10107000BB1F661F771F881F91505040A9F79E3FE6
:10108000510570F034CFA3CF5F3FECF3983EDCF313
:10109000869577956795B795F795E7959F5FC1F723
:1010A000FE2B880F911D9695879597F9089511F459
:1010B0000EF423CF41C070DFD0F39923D9F3CEF3E0
:1010C0009F57550B87FF46D00024A0E640EA9001C9
:1010D00080585695979528F4805C660F771F881F77
:1010E00020F026173707480730F4621B730B840B78
:1010F000202931294A2BA6951794079420253125BC
:101100004A2758F7660F771F881F20F026173707E2
:10111000480730F4620B730B840B200D311D411D09
:10112000A09581F7B901842F9158880F96958795DE
:1011300008959B01AC0158CF9F3F31F0915020F4AE
:10114000879577956795B795880F911D96958795A3
:1011500097F9089591505040660F771F881FD2F776
:101160000895052E97FB16F400940FD057FD05D077
:1011700014D007FC02D046F408C050954095309535
:1011800021953F4F4F4F5F4F0895909580957095F3
:1011900061957F4F8F4F9F4F0895A1E21A2EAA1B92
:1011A000BB1BFD010DC0AA1FBB1FEE1FFF1FA21717
:1011B000B307E407F50720F0A21BB30BE40BF50B14
:1011C000661F771F881F991F1A9469F7609570959D
:1011D000809590959B01AC01BD01CF010895F894D5
:0211E000FFCF3F
:00000001FF
