:1000000088C00000A5C00000A3C00000A1C000007F
:100010009FC000009DC000009BC0000099C0000070
:100020000C94150F0C94530C93C0000091C0000069
:100030008FC000008DC000008BC0000089C0000090
:1000400087C0000085C000000C94FC0B81C000003C
:100050007FC000000C94200B7BC0000079C0000022
:1000600077C0000075C0000073C0000071C00000C0
:100070006FC000006DC000000C94270C69C0000028
:1000800067C0000065C0000063C0000023051105C3
:1000900038061E0647053505380638065905380660
:1000A0003806380638063806380638063806380660
:1000B00038063806EC054D08EE07CE082509BD08C0
:1000C000AC08DD0725096C0725092509250925093F
:1000D0002509250925092509250925092509CC070B
:1000E0002509250925095E0776096B0981095D0A3D
:1000F000910986097D0A7D0A9C097D0A7D0A7D0A8F
:100100007D0A7D0A7D0A7D0A7D0A7D0A7D0A7D0AB7
:10011000270A11241FBECFEFD0E1DEBFCDBF11E013
:10012000A0E0B1E0E6EEF5E200E00BBF02C0079010
:100130000D92A031B107D9F722E0A0E1B1E001C0F2
:100140001D92AD3AB207E1F70E94220F0C94F11212
:1001500057CF9FEB980F963010F4875308959FE97F
:10016000980F963010F48755089580538A3008F020
:1001700080E008958A3018F490E3980F01C090E071
:1001800026EF280F263010F497E3980FFB01E40FB9
:10019000F11D908308950F931F93CF93DF93182F32
:1001A000EB01042F82958F70E5DF41E0400FBE0127
:1001B000812F8F70DFDFDF91CF911F910F91089515
:1001C0000F931F93CF93DF93082FEB01142F892FE9
:1001D000E2DF42E0410FBE01802FDDDFDF91CF91F2
:1001E0001F910F910895DF92EF92FF920F931F934B
:1001F000CF93DF937C01D62E862F90E08C010C5F8D
:100200001F4F80179107CCF480E090E0EC01C2957D
:10021000D295D07FDC27C07FDC27F701ED0DF11DE3
:10022000808197DF9E01280F311DC901D3942D2DA8
:1002300030E02017310754F302C080E090E0DF91F6
:10024000CF911F910F91FF90EF90DF900895E1996A
:10025000FECF7FBB6EBB4DBBE29AE19A0895E19958
:10026000FECF7FBB6EBBE09A8DB308958F929F92B5
:10027000AF92BF92CF92DF92EF92FF92CF93DF9334
:10028000C82F6A017B01822E912CA12CB12C880CE5
:10029000991CAA1CBB1C840E951EA61EB71E4815D1
:1002A00059056A057B05B8F4D92F4D2FC701B60152
:1002B000CEDFC701B6016F5F7F4F8F4F9F4F4C2F2F
:1002C000C6DF82E0C80ED11CE11CF11CC814D904A1
:1002D000EA04FB0450F3DF91CF91FF90EF90DF90A1
:1002E000CF90BF90AF909F908F9008957F928F9204
:1002F0009F92AF92BF92CF92DF92EF92FF920F93B5
:100300001F93CF93DF938C016A017B01822E912C86
:10031000A12CB12C880C991CAA1CBB1C840E951E08
:10032000A61EB71E481559056A057B0538F5712CC0
:10033000C701B60194DFC82FD0E0DC2FCC27C7015E
:10034000B6016F5F7F4F8F4F9F4F89DF91E0970D11
:10035000E72DF0E0EE0FFF1FE00FF11FC80FD11DDA
:10036000D183C08382E0C80ED11CE11CF11CC814EB
:10037000D904EA04FB0410F4792EDACFDF91CF918F
:100380001F910F91FF90EF90DF90CF90BF90AF90B3
:100390009F908F907F9008956F927F929F92AF92DF
:1003A000BF92CF92DF92EF92FF920F931F93CF9362
:1003B000DF93CDB7DEB7ADB6BEB62DB73EB7261BC1
:1003C00031090FB6F8943EBF0FBE2DBFADB7BEB713
:1003D00011966D01662369F18D017C01912C380124
:1003E000F801108293949616F1F1D701ED91FD91E9
:1003F0007D01792D272F30E0220F331F280F391F61
:10040000D9012D913C91E217F30721F4D3012C91EE
:100410002F5F2C937F5F7613EDCF0F5F1F4FDFCFE2
:100420007191A71710F4232FA72F3F5F3613F8CF32
:1004300001C020E030E0F901EE0FFF1FE80FF91FC7
:1004400080819181FA0191838083F601E20FF31F8D
:10045000208130E070E06150710981E02617370794
:1004600039F080E005C0F601A19130E020E0DDCF59
:100470000FB6F894BEBE0FBEADBEDF91CF911F91F7
:100480000F91FF90EF90DF90CF90BF90AF909F9033
:100490007F906F9008959F92AF92BF92CF92DF921C
:1004A000EF92FF920F931F93CF93DF9300D0CDB7BE
:1004B000DEB76B017C01942EADB6BEB6842F90E002
:1004C000880F991F2DB73EB7281B390B0FB6F8942C
:1004D0003EBF0FBE2DBF0DB71EB70F5F1F4F1A8255
:1004E0001982242FB701A601C80100DFAE014F5FBA
:1004F0005F4F692DC80150DF811106C0292DB7015A
:10050000A60189819A81B2DE89819A810FB6F89419
:10051000BEBE0FBEADBE0F900F90DF91CF911F9169
:100520000F91FF90EF90DF90CF90BF90AF909F9092
:1005300008950F9301119ADE0F9108954AE064E443
:1005400072E080E090E0A7DF9093BC018093BB0154
:100550004AE06CE872E080E090E09DDF9093BA01A1
:100560008093B9014AE064ED72E080E090E093DFAF
:100570009093B8018093B7014AE06CE173E080E0AA
:1005800090E089DF9093B6018093B5014AE064E67C
:1005900070E080E090E07FDF909307018093060198
:1005A0004AE064E970E080E090E075DF9093050137
:1005B000809304014AE06CE770E080E090E06BDF3C
:1005C0009093A4018093A3014AE06CEA70E080E07C
:1005D00090E061DF9093A2018093A1014AE064EE74
:1005E00071E080E090E057DF9093A00180939F013D
:1005F0004AE06CEF71E080E090E04DDF9093A8015D
:100600008093A7014AE064EC70E080E090E043DF73
:1006100090930301809302014AE064EF70E080E070
:1006200090E039DF90930101809300014AE06CED86
:1006300070E080E090E02FDF909396018093950129
:100640004AE06CE071E080E090E025DF9093940157
:10065000809393014AE064E271E080E090E01BDF68
:1006600090939801809397014AE064E571E080E0FF
:1006700090E011DF90939A01809399014AE06CE336
:1006800071E080E090E007DF90939C0180939B01F4
:100690004AE06CE671E080E090E0FDDE90939E0120
:1006A00080939D014AE06CE272E080E090E0F3DE2E
:1006B00090939201809391014AE064E172E080E0BE
:1006C00090E0E9DE9093900180938F010895CF929E
:1006D000DF92EF92FF926B3F710508F025C18130E8
:1006E00009F456C020F0823009F4A3C01FC180E095
:1006F00090E00E94B4116B017C0120E030E0A90180
:100700000E941C11882399F120E030E040E251E47E
:10071000C701B6010E941C11181664F520E030E0F4
:1007200040EA51E4C701B6010E941C1118162CF5CD
:1007300020E030E048EC51E4C701B6010E941C11F2
:100740008823F4F06091BB017091BC0180E090E0DF
:100750000E94B411A70196010E94661220E030E8C1
:1007600049E853E40E9420110E9488110BC060E008
:1007700070E008C062E070E005C064E070E002C0B4
:1007800066E070E0709387006093860081E0F3C0BC
:1007900080E090E00E94B4116B017C0120E030E029
:1007A000A9010E941C11882399F120E030E040E269
:1007B00051E4C701B6010E941C11181664F520E02F
:1007C00030E040EA51E4C701B6010E941C1118163E
:1007D0002CF520E030E048EC51E4C701B6010E945E
:1007E0001C118823F4F06091B9017091BA0180E086
:1007F00090E00E94B411A70196010E94661220E0C9
:1008000030E849E853E40E9420110E9488110BC08F
:1008100060E070E008C062E070E005C064E070E095
:1008200002C066E070E0709385006093840081E010
:10083000A2C080E090E00E94B4116B017C0120E036
:1008400030E0A9010E941C11882309F48DC020E02A
:1008500030E040E251E4C701B6010E941C111816B5
:100860000CF066C020E030E040EA51E4C701B60178
:100870000E941C1118160CF063C020E030E048EC18
:1008800051E4C701B6010E941C1188230CF45BC01F
:100890006091B7017091B80180E090E00E94B411BE
:1008A000A70196010E94661220E030E849E853E46F
:1008B0000E9420110E94881148C020E030E040EAE8
:1008C00051E4C701B6010E941C1118160CF520E076
:1008D00030E048EC51E4C701B6010E941C118823A6
:1008E000D4F06091B5017091B60180E090E00E9473
:1008F000B4119B01AC01C701B6010E94661220E051
:1009000030E849E853E40E9420110E94881108C091
:1009100064E070E005C066E070E002C062E070E094
:100920007BBD6ABD81E027C080E025C080E023C098
:100930001092830082E08093820062E070E0F0CF4A
:1009400064E070E002C066E070E070938300609342
:10095000820020E030E040E251E4C701B6010E948D
:100960001C111816DCF6A9CF109283001092820099
:1009700060E070E0D5CFFF90EF90DF90CF900895CA
:10098000611594E07907F0F4813061F028F082304D
:1009900079F0833099F018C07093870060938600D7
:1009A00081E00895709385006093840081E008954C
:1009B000709383006093820081E008957BBD6ABDDF
:1009C00081E0089580E0089580E008958F929F92DD
:1009D000AF92BF92CF92DF92EF92FF920F931F934D
:1009E000CF93DF9300D01F92CDB7DEB780916D011A
:1009F000882309F43EC41B8290914D019983809114
:100A00004E018A83913409F042C190E0FC01E15427
:100A1000F109E531F10508F02BC1EA5BFF4F0C94B9
:100A2000EB12BE016F5F7F4F80E00E943D1040914E
:100A30008B0150918C0160918D0170918E0180E04D
:100A40000E9455101CC1BE016F5F7F4F80E00E9465
:100A50003D1040918701509188016091890170910A
:100A60008A0180E00E9455100AC1BE016F5F7F4F6E
:100A700080E00E943D10409183015091840160917B
:100A800085017091860180E00E945510F8C0BE017A
:100A90006F5F7F4F80E00E943D1040917F01509139
:100AA0008001609181017091820180E00E94551067
:100AB000E6C062E08AE291E096DB8C01BC0180E056
:100AC00090E00E94B4116B017C0120E030E543EC22
:100AD00056E40E941C1118160CF4D1C01093AE01FC
:100AE0000093AD0120E030E040E85FE3C701B601CC
:100AF0000E941C1188231CF4AF981BBA6AC0009195
:100B0000A1011091A20120E030E04AE755E4C701BD
:100B1000B6010E94B7106B017C01609104017091D5
:100B20000501601B710B80E090E00E94B4119B01F5
:100B3000AC01C701B6010E94661220E030E04AE72E
:100B400056E40E9420116B017C01B80180E090E026
:100B50000E94B4119B01AC01C701B6010E94B810FC
:100B60006B017C010E9488114B015C0120E030E0A8
:100B700040E251E4C701B6010E9466120E9488114A
:100B80002AE030E040E050E00E94C9126530710573
:100B90008105910528F49092B2018092B10107C0BD
:100BA0002FEF821A920A9092B2018092B101809145
:100BB000B1019091B201811542E0940750F48F3F4A
:100BC000910519F010F0AF9A01C0AF988091B10172
:100BD0008BBB1092B40153C062E08DE491E003DB63
:100BE000BC0180E090E00E94B4116B017C01609137
:100BF0009F017091A00180E090E00E94B411A701D4
:100C000096010E94661220E030E84BEB55E40E940A
:100C100020119B01AC0160E070EC8FE794E40E942E
:100C2000B7100E9488116093AB017093AC01709370
:100C300079008091AB018093780021C080914F01B1
:100C4000813399F48091B1019091B201811552E004
:100C50009507A8F48F3F910519F010F0AF9A01C0E5
:100C6000AF988091B1018BBB0AC0AF981BBA07C087
:100C70006FE380E00E942D1010926D01FAC268E0CF
:100C800071E080E00E943D1010926D01F2C292343A
:100C900089F462E08DE491E0A6DABC0180914E0116
:100CA000815415DD68E071E080E00E943D101092F3
:100CB0006D01DFC29A3509F076C0853409F442C06F
:100CC00028F48134D9F0823439F05DC0863441F1A2
:100CD000883509F449C057C0BE016F5F7F4F80E07F
:100CE0000E943D1040917B0150917C0160917D01FB
:100CF00070917E0180E00E9455104DC0BE016F5F73
:100D00007F4F80E00E943D10409177015091780123
:100D10006091790170917A0180E00E9455103BC08A
:100D2000BE016F5F7F4F80E00E943D1040917301D4
:100D300050917401609175017091760180E00E947C
:100D4000551029C0BE016F5F7F4F80E00E943D10AB
:100D500040916F0150917001609171017091720129
:100D600080E00E94551017C0BE016F5F7F4F80E08A
:100D70000E943D104091B30150E060E070E080E0DF
:100D80000E94551008C06CE071E080E00E943D10A8
:100D900010926D016EC268E071E080E00E943D102B
:100DA00010926D0166C2993509F079C0873409F453
:100DB00040C020F4833409F458C061C0893419F06C
:100DC0008535C9F05CC062E08DE491E00CDA909367
:100DD000B0018093AF01811522E0920708F057C05F
:100DE0008F3F910519F010F0AF9A01C0AF98809134
:100DF000AF018BBB4CC062E08DE491E0F4D981156A
:100E000044E0940728F09093AA018093A9013FC081
:100E10002FEF33E0A901481B590BCA015093AA01D7
:100E20004093A901909379008091A9018093780063
:100E30002EC062E08DE491E0D6D9811554E095078B
:100E400028F09093A6018093A50121C02FEF33E0F5
:100E5000A901481B590BCA015093A6014093A50153
:100E600099BD8091A50188BD12C063E08DE491E039
:100E7000BAD9BC0180914F01815482DD08C06CE079
:100E800071E080E00E943D1010926D01F2C168E0B7
:100E900071E080E00E943D1010926D01EAC195342E
:100EA00009F0E1C190E0FC01E154F109E931F105FB
:100EB00008F0CBC1E55AFF4F0C94EB1280914F0123
:100EC000853409F0C9C180915001833509F0C4C14E
:100ED00081E080932801C0C180914F01813449F5A0
:100EE00063E08DE491E07FD9909307018093060140
:100EF00067E08DE491E077D99093A4018093A301FA
:100F0000009128012AE044E650E060E070E0809122
:100F10000601909107010DDB009128012AE04CE7C2
:100F200050E060E070E08091A3019091A40101DBAA
:100F300093C1843449F563E08DE491E054D99093F2
:100F400005018093040167E08DE491E04CD9909312
:100F5000A2018093A101009128012AE044E950E018
:100F600060E070E08091040190910501E2DA009167
:100F700028012AE04CEA50E060E070E08091A10195
:100F80009091A201D6DA68C16CE071E080E00E9425
:100F90003D1010926D016DC162E08DE491E023D9A6
:100FA0009093A00180939F01009128012AE044EED4
:100FB00051E060E070E0BDDA4FC162E08DE491E0A5
:100FC00012D99093A8018093A701009128012AE0EB
:100FD0004CEF51E060E070E0ACDA3EC180914F012F
:100FE000813449F563E08DE491E0FDD890930301ED
:100FF0008093020167E08DE491E0F5D8909396012B
:1010000080939501009128012AE044EC50E060E0D3
:1010100070E080910201909103018BDA0091280128
:101020002AE04CED50E060E070E0809195019091F5
:1010300096017FDA11C1843449F563E08DE491E0D3
:10104000D2D8909301018093000167E08DE491E094
:10105000CAD89093940180939301009128012AE0CB
:1010600044EF50E060E070E0809100019091010158
:1010700060DA009128012AE04CE051E060E070E085
:10108000809193019091940154DAE6C06CE071E094
:1010900080E0F3D710926D01ECC080914F01813454
:1010A00049F563E08DE491E09ED890939801809398
:1010B000970167E08DE491E096D890939C0180932E
:1010C0009B01009128012AE044E251E060E070E0D9
:1010D00080919701909198012CDA009128012AE0E3
:1010E0004CE351E060E070E080919B0190919C01A5
:1010F00020DAB2C0843449F563E08DE491E073D81E
:1011000090939A018093990167E08DE491E06BD808
:1011100090939E0180939D01009128012AE044E56F
:1011200051E060E070E08091990190919A0101DABC
:10113000009128012AE04CE651E060E070E08091E7
:101140009D0190919E01F5D987C06CE071E080E02F
:1011500094D710926D018DC062E08DE491E043D888
:101160009093920180939101009128012AE04CE232
:1011700052E060E070E0DDD96FC062E08DE491E0A4
:1011800032D89093900180938F01009128012AE03A
:1011900044E152E060E070E0CCD95EC080914F0144
:1011A000813489F463E08DE491E01DD89093BC0113
:1011B0008093BB01009128012AE044E452E060E002
:1011C00070E0B7D949C0823489F463E08DE491E0DE
:1011D0000AD89093BA018093B901009128012AE0BE
:1011E0004CE852E060E070E0A4D936C0833491F45A
:1011F00063E08DE491E00E94F3009093B801809346
:10120000B701009128012AE044ED52E060E070E06F
:1012100090D922C0843491F463E08DE491E00E947F
:10122000F3009093B6018093B501009128012AE064
:101230004CE153E060E070E07CD90EC06CE071E0FE
:1012400080E01BD710926D0114C06CE071E080E06B
:1012500014D710926D010DC068E071E080E00DD7E9
:1012600010926D0106C06CE071E080E006D710922C
:101270006D010F900F900F90DF91CF911F910F9103
:10128000FF90EF90DF90CF90BF90AF909F908F90A6
:1012900008958F929F92AF92BF92CF92DF92EF927A
:1012A000FF92CF93DF9380914A01882309F448C1CC
:1012B00080912A01813409F02CC180912B0190E0AA
:1012C000FC01E154F109E531F10508F016C1EC58D3
:1012D000FF4F0C94EB1240918B0150918C01609167
:1012E0008D0170918E0181E0E0D60DC140918701A2
:1012F000509188016091890170918A0181E0D5D671
:1013000002C180912C018093B401FDC04091830102
:1013100050918401609185017091860181E0C5D66C
:10132000F2C040917F0150918001609181017091E4
:10133000820181E0BAD6E7C062E08AE291E00E94D1
:10134000F300EC01BC0180E090E00E94B4116B015D
:101350007C0120E030E543EC56E46ED718160CF41F
:10136000D2C0D093AE01C093AD0120E030E040E8A0
:101370005FE3C701B60160D788231CF4AF981BBA9E
:1013800063C0C091A101D091A20120E030E04AE702
:1013900055E4C701B601EBD66B017C0160910401F5
:1013A000709105016C1B7D0B80E090E0DDD79B0107
:1013B000AC01C701B6010E94661220E030E04AE7A6
:1013C00056E43ED76B017C01BE0180E090E0CCD7B3
:1013D0009B01AC01C701B601CBD66B017C0198D74C
:1013E0004B015C0120E030E040E251E4C701B6016E
:1013F0000E9466128DD72AE030E040E050E00E9463
:10140000C912653071058105910528F49092B201E9
:101410008092B10107C02FEF821A920A9092B20116
:101420008092B1018091B1019091B201811522E0C9
:10143000920750F48F3F910519F010F0AF9A01C058
:10144000AF988091B1018BBB1092B4015CC062E097
:101450008AE291E00E94F300BC0180E090E084D732
:101460006B017C0120E030E84BEB55E4E5D6181623
:101470000CF449C060919F017091A00180E090E060
:1014800073D7A70196010E94661220E030E84BEB6B
:1014900055E4D6D69B01AC0160E070EC8FE794E494
:1014A00066D636D76093AB017093AC017093790028
:1014B0008091AB018093780026C080912C0181300F
:1014C00099F48091B1019091B201811522E09207C7
:1014D000D0F48F3F910519F010F0AF9A01C0AF988A
:1014E0008091B1018BBB0FC0AF981BBA83E0809392
:1014F00079008FEF8093780006C06FE381E0ADD56F
:1015000010924A011DC06AE281E0A7D510924A01FB
:1015100017C0823481F462E08AE291E00E94F30015
:10152000BC0180912B018154D2D86AE281E095D52B
:1015300010924A0105C06FE381E08FD510924A01F5
:10154000DF91CF91FF90EF90DF90CF90BF90AF9061
:101550009F908F9008959FEF9ABB1BBA80EE87BB38
:1015600018BA80E884BB15BA28E021BB12BA2AE772
:1015700022B913B820E92093610010926200109202
:1015800064001092650020912701206C27B92FE894
:1015900026B910BC10BE13BE12BE11BE2FEB2FBD5C
:1015A00029E02EBD1DBC1CBC17BC16BC1BBC1ABC44
:1015B00033E039BD98BD30937900909378009BE07B
:1015C00095BD14BC99EF93BD9BEA90938B0020933B
:1015D0008A00109289001092880010928100109267
:1015E0008000109287001092860010928500109261
:1015F0008400109283001092820087BF10927D00B9
:1016000010926A0090E49ABF89BF88BF1BB838E97E
:101610003AB926E0209395001092900097E699B988
:1016200010929B0030939A0020939D001092980096
:101630009093990088B910BC1DB810927400089559
:101640001F920F920FB60F9211240BB60F922F9389
:101650003F934F935F938F939F93AF93BF93EF937A
:10166000FF9384B195B190932601809325018091D9
:10167000270181112AC0EFE6F2E049E452E080E060
:1016800090E0DC013291229133832283820F931FF9
:10169000A11DB11DE417F507A9F72091250130918F
:1016A000260130934A0220934902820F931FA11D05
:1016B000B11D80931D0190931E01A0931F01B09353
:1016C000200181E08093270182C0813051F5E7E459
:1016D000F2E041E252E080E090E0DC0132912291C0
:1016E00033832283820F931FA11DB11DE417F507D9
:1016F000A9F72091250130912601309322022093F1
:101700002102820F931FA11DB11D80931901909397
:101710001A01A0931B01B0931C0182E08093270162
:1017200056C0823051F5EBE0F2E045EE51E080E04A
:1017300090E0DC013291229133832283820F931F48
:10174000A11DB11DE417F507A9F7209125013091DE
:1017500026013093E6012093E501820F931FA11D1E
:10176000B11D8093150190931601A0931701B093BA
:10177000180183E0809327012AC0833041F5E3EE0E
:10178000F1E04DEB51E080E090E0DC0132912291FC
:1017900033832283820F931FA11DB11DE417F50728
:1017A000A9F720912501309126013093BE012093A5
:1017B000BD01820F931FA11DB11D80931101909354
:1017C0001201A0931301B09314011092270180918C
:1017D0002701806C87B9FF91EF91BF91AF919F91E5
:1017E0008F915F914F913F912F910F900BBE0F9072
:1017F0000FBE0F901F9018951F920F920FB60F9269
:1018000011240BB60F928F939F93EF93FF938CB19C
:1018100080936E018D3031F410924C0181E0809301
:101820006D010AC0E0914C0191E09E0F90934C0134
:10183000F0E0E35BFE4F8083FF91EF919F918F91EA
:101840000F900BBE0F900FBE0F901F9018951F9218
:101850000F920FB60F9211240BB60F928F939F9396
:10186000EF93FF9380919C0080934B018D3031F476
:101870001092290181E080934A010AC0E091290178
:1018800091E09E0F90932901F0E0E65DFE4F80838A
:10189000FF91EF919F918F910F900BBE0F900FBE14
:1018A0000F901F9018951F920F920FB60F92112450
:1018B0000BB60F924F925F926F927F928F929F9290
:1018C000AF92BF92CF92DF92EF92FF920F931F934E
:1018D0002F933F934F935F936F937F938F939F9338
:1018E000AF93BF93CF93DF93EF93FF93809110015A
:1018F0008F5F883218F48093100173C21092100128
:101900008091B301843118F48F5F8093B3011091FB
:101910002401C12FD0E0CC0FDD1FCC0FDD1FCB5732
:10192000DD4F60911D0170911E0180911F0190910A
:1019300020010F2EF4E1CF2ED12CE12CF12CF02D33
:10194000A701960126D6288339834A835B831F5FCC
:101950001093240100912301C02FD0E0CC0FDD1F94
:10196000CC0FDD1FC35FDD4F6091190170911A012B
:1019700080911B0190911C01A70196010AD6288332
:1019800039834A835B830F5F00932301153018F47A
:10199000053008F434C1C5E8D2E00DE012E00F2EA6
:1019A000F9E9AF2EF2E0BF2EF02DC12CD12C76013B
:1019B000260137016991799189919991D5D49B013B
:1019C000AC01C301B201D4D32B013C01F8016191F8
:1019D0007191819191918F01C7D49B01AC01C70195
:1019E000B601C6D36B017C01CA15DB0519F720E0EF
:1019F00030E040EA50E4C301B20122D42B013C01A3
:101A000087D460937B0170937C0180937D019093D8
:101A10007E0120E030E040EA50E4C701B60110D476
:101A20006B017C0175D4609377017093780180938A
:101A3000790190937A018091B3018A3008F057C000
:101A4000609195017091960180E090E08DD44B01FA
:101A50005C019B01AC01C301B20189D320E030E0FD
:101A60004AE756E433D52B013C01609102017091A5
:101A7000030180E090E078D4A501940178D39B0124
:101A8000AC01C301B201DCD320E030E04AE755E409
:101A90006FD32B013C0160919B0170919C0180E010
:101AA00090E062D44B015C019B01AC01C701B6011F
:101AB0005ED320E030EE4BEA55E408D56B017C01A3
:101AC000609197017091980180E090E04DD4A5015C
:101AD00094014DD39B01AC01C701B601B1D320E005
:101AE00030E04AEF53E444D36B017C0156C060916F
:101AF00093017091940180E090E036D44B015C0139
:101B00009B01AC01C301B20132D320E030E04AE7CF
:101B100056E4DCD42B013C0160910001709101017D
:101B200080E090E021D4A501940121D39B01AC0178
:101B3000C301B20185D320E030E04AE755E418D371
:101B40002B013C0160919D0170919E0180E090E02D
:101B50000BD44B015C019B01AC01C701B60107D35B
:101B600020E030EE4BEA55E4B1D46B017C0160918A
:101B7000990170919A0180E090E0F6D3A50194015B
:101B8000F6D29B01AC01C701B6015AD320E030E088
:101B90004AEF53E4EDD26B017C0120E030E048E4F1
:101BA00053E4C301B20148D388231CF4412C512CC7
:101BB000320120E030E048E452E4C701B6013CD3F2
:101BC00088231CF4C12CD12C7601C301B201A0D30F
:101BD00060938B0170938C0180938D0190938E01A3
:101BE000C701B60195D360938701709388018093F4
:101BF000890190938A01109224011092230110917F
:101C00002201C12FD0E0CC0FDD1FCC0FDD1FC75646
:101C1000DD4F60911501709116018091170190912F
:101C200018010F2EF4E1CF2ED12CE12CF12CF02D48
:101C3000A7019601AED4288339834A835B831F5F53
:101C40001093220100912101C02FD0E0CC0FDD1FA5
:101C5000CC0FDD1FCF58DD4F609111017091120143
:101C60008091130190911401A701960192D42883C9
:101C700039834A835B830F5F00932101153018F489
:101C8000053008F4AEC0C9E9D2E001E712E00F2E3A
:101C9000FDEAAF2EF2E0BF2EF02DC12CD12C760143
:101CA0002601370169917991899199915DD39B01C1
:101CB000AC01C301B2015CD22B013C01F80161917E
:101CC0007191819191918F014FD39B01AC01C7011B
:101CD000B6014ED26B017C01CA15DB0519F720E075
:101CE00030E040EA50E4C301B201AAD22B013C012A
:101CF0000FD3609373017093740180937501909377
:101D0000760120E030E040EA50E4C701B60198D205
:101D10006B017C01FDD260936F0170937001809321
:101D200071019093720120E030E84BEB55E4C7015C
:101D3000B601CCD36B017C0160918F017091900151
:101D400080E090E011D39B01AC01C701B60178D2CD
:101D50006B017C0120E030E543EC56E4C301B201A5
:101D6000B5D32B013C01609191017091920180E00B
:101D700090E0FAD29B01AC01C301B20161D22B0108
:101D80003C0120E030E048E453E456D288231CF4C0
:101D9000412C512C320120E030E048E452E4C701EC
:101DA000B6014AD288231CF4C12CD12C7601C30180
:101DB000B201AED260938301709384018093850158
:101DC00090938601C701B601A3D260937F017093FF
:101DD00080018093810190938201109222011092E0
:101DE0002101369AFF91EF91DF91CF91BF91AF9191
:101DF0009F918F917F916F915F914F913F912F9123
:101E00001F910F91FF90EF90DF90CF90BF90AF9018
:101E10009F908F907F906F905F904F900F900BBE30
:101E20000F900FBE0F901F9018951F920F920FB634
:101E30000F9211241092B30114BC0F900FBE0F909B
:101E40001F90189588DBE2E6F0E0908180E1892719
:101E500080832FEF89E698E1215080409040E1F7A0
:101E600000C000000E949E02EFEFF9E628E1E15079
:101E7000F0402040E1F700C000002091A701309120
:101E8000A8018FEF93E0821B930B99BD8091A7016E
:101E9000809588BD62E370E080E00E94670362E3A2
:101EA00070E081E00E94670362E370E082E00E94DC
:101EB0006703E2E6F0E0908180E1892780838FEF7D
:101EC00099E6E8E181509040E040E1F700C0000071
:101ED00078940F2EF0E54F2EF3EC5F2E612C712CD1
:101EE000F02DC12CD12C7601C2E6D0E010E000E04C
:101EF000312C212C09C0C12ED02EE32CF22C04C091
:101F0000C12ED02EE32CF22CF5E3FA95F1F7000068
:101F10002FEF421A520A620A720A88E8481683E1D1
:101F200058066104710421F488818F7E88830EC075
:101F300090E5491693EC59066104710438F08881E4
:101F400080618883412E502E632C722CA2D90E946E
:101F5000E6048091B4018111D7CFEFEFCE1ADE0AEB
:101F6000EE0AFE0AF0E5CF16F3ECDF06E104F10419
:101F700058F221E02093B4018091B3018A3008F037
:101F8000BACFE090A301F090A4016091AD017091EF
:101F9000AE0180E090E0E8D120E030E04AE755E48F
:101FA000E6D04B015C0160910601709107016E194A
:101FB0007F0980E090E0D8D19B01AC01C501B4015C
:101FC00085D220E030E04AE756E43AD14B015C018B
:101FD000B70180E090E0C8D19B01AC01C501B4011C
:101FE000C7D06B017C0194D14B015C0120E030E053
:101FF00040E251E4C701B60169D28AD12AE030E05B
:1020000040E050E0C6D2653071058105910528F4A5
:102010009092B2018092B10107C08FEF881A980A9E
:102020009092B2018092B1018091B1019091B20180
:102030008115E2E09E0708F063CF8F3F910519F00C
:1020400010F0AF9A01C0AF98E1EBF1E080818BBB5B
:10205000C12ED02EE32CF22C57CF811104C05D9BF2
:10206000FECF6CB90895813039F4EBE9F0E080815E
:1020700085FFFDCF60939C0008950F931F93CF932E
:10208000DF93082FEB016881662351F010E0802F69
:10209000E4DF1F5FFE01E10FF11D60816111F7CFE9
:1020A000DF91CF911F910F910895CF92DF92EF9220
:1020B000FF921F93CF93DF93CDB7DEB72A970FB66A
:1020C000F894DEBF0FBECDBF182FDB01CA019A0105
:1020D0002F7033274FEF50E06A01C21AD30AAC01C8
:1020E000BD01032E3CE076956795579547953A9547
:1020F000D1F7302D4F705527C41AD50A492F5A2FC2
:102100006B2F77274F705527C41AD50AAC01BD0134
:10211000689413F876956795579547951694D1F777
:102120004F705527C41AD50A9E012F5F3F4F790182
:102130002AE0F70111922A95E9F740E0B7010E94E1
:10214000E00044E0B7018C2D0E94CB00B701812F45
:1021500094DF2A960FB6F894DEBF0FBECDBFDF9195
:10216000CF911F91FF90EF90DF90CF90089550583E
:10217000BB27AA270ED070C161D130F066D120F004
:1021800031F49F3F11F41EF456C10EF4E095E7FBC5
:102190004CC1E92F72D180F3BA1762077307840725
:1021A000950718F071F49EF58AC10EF4E0950B2E98
:1021B000BA2FA02D0B01B90190010C01CA01A00199
:1021C0001124FF27591B99F0593F50F4503E68F1F4
:1021D0001A16F040A22F232F342F4427585FF3CF35
:1021E000469537952795A795F0405395C9F77EF406
:1021F0001F16BA0B620B730B840BBAF09150A1F04F
:10220000FF0FBB1F661F771F881FC2F70EC0BA0FD4
:10221000621F731F841F48F4879577956795B7955C
:10222000F7959E3F08F0B3CF9395880F08F0992754
:10223000EE0F979587950895D4D008F481E008951E
:102240000CD00AC102D140F0F9D030F021F45F3F48
:1022500019F0EBC0511134C1EEC00FD198F399239E
:10226000C9F35523B1F3951B550BBB27AA2762175A
:102270007307840738F09F5F5F4F220F331F441F9F
:10228000AA1FA9F333D00E2E3AF0E0E830D09150D7
:102290005040E695001CCAF729D0FE2F27D0660FC4
:1022A000771F881FBB1F261737074807AB07B0E803
:1022B00009F0BB0B802DBF01FF2793585F4F2AF019
:1022C0009E3F510568F0B1C0FBC05F3FECF3983E04
:1022D000DCF3869577956795B795F7959F5FC9F776
:1022E000880F911D9695879597F90895E1E0660FFF
:1022F000771F881FBB1F621773078407BA0720F078
:10230000621B730B840BBA0BEE1F88F7E0950895E0
:10231000BCD088F09F5790F0B92F9927B751A0F003
:10232000D1F0660F771F881F991F1AF0BA95C9F769
:1023300012C0B13081F0C3D0B1E00895C0C0672FA2
:10234000782F8827B85F39F0B93FCCF38695779519
:102350006795B395D9F73EF4909580957095619502
:102360007F4F8F4F9F4F0895E89409C097FB3EF42D
:1023700090958095709561957F4F8F4F9F4F9923D2
:10238000A9F0F92F96E9BB279395F6958795779550
:102390006795B795F111F8CFFAF4BB0F11F460FF10
:1023A0001BC06F5F7F4F8F4F9F4F16C0882311F068
:1023B00096E911C0772321F09EE8872F762F05C07C
:1023C000662371F096E8862F70E060E02AF09A9517
:1023D000660F771F881FDAF7880F9695879597F90C
:1023E0000895990F0008550FAA0BE0E8FEEF1616A6
:1023F0001706E807F907C0F012161306E407F507F9
:1024000098F0621B730B840B950B39F40A2661F06C
:10241000232B242B252B21F408950A2609F4A1400F
:10242000A6958FEF811D811D089597F99F6780E81C
:1024300070E060E008959FEF80EC089500240A9416
:102440001616170618060906089500240A9412168F
:102450001306140605060895092E0394000C11F4C2
:10246000882352F0BB0F40F4BF2B11F460FF04C06F
:102470006F5F7F4F8F4F9F4F089557FD9058440FC8
:10248000551F59F05F3F71F04795880F97FB991FD3
:1024900061F09F3F79F08795089512161306140690
:1024A000551FF2CF4695F1DF08C01616170618061D
:1024B000991FF1CF86957105610508940895E894F8
:1024C000BB2766277727CB0197F908950BD0C4CF98
:1024D000B5DF28F0BADF18F0952309F0A6CFABCF0F
:1024E0001124EECFCADFA0F3959FD1F3950F50E0F2
:1024F000551F629FF001729FBB27F00DB11D639FB6
:10250000AA27F00DB11DAA1F649F6627B00DA11D5B
:10251000661F829F2227B00DA11D621F739FB00D01
:10252000A11D621F839FA00D611D221F749F332771
:10253000A00D611D231F849F600D211D822F762F0A
:102540006A2F11249F5750408AF0E1F088234AF007
:10255000EE0FFF1FBB1F661F771F881F9150504053
:10256000A9F79E3F510570F060CFAACF5F3FECF313
:10257000983EDCF3869577956795B795F795E7953F
:102580009F5FC1F7FE2B880F911D9695879597F950
:102590000895A1E21A2EAA1BBB1BFD010DC0AA1FA4
:1025A000BB1FEE1FFF1FA217B307E407F50720F0BC
:1025B000A21BB30BE40BF50B661F771F881F991F37
:1025C0001A9469F760957095809590959B01AC0180
:1025D000BD01CF010895EE0FFF1F0590F491E02D8E
:0625E0000994F894FFCFFE
:1025E600C901C901300130012A0D0A003F0D0A0058
:00000001FF
