:1000000045C0000060C000005EC000005CC0000091
:100010005AC0000058C0000056C0000054C0000084
:1000200052C0000050C000004EC000004CC0000094
:100030004AC0000048C0000046C0000044C00000A4
:1000400042C0000040C000003EC000003CC00000B4
:100050003AC0000038C0000036C0000034C00000C4
:1000600032C0000030C000002EC000002CC00000D4
:100070002AC0000028C000000BC1000024C00000FE
:1000800022C0000020C000001EC0000011241FBEBE
:10009000CFEFD0E1DEBFCDBF11E0A0E0B1E0EEEDEB
:1000A000F3E000E00BBF02C007900D92A030B10753
:1000B000D9F722E0A0E0B1E001C01D92A330B20761
:1000C000E1F70ED18AC19CCF90919B0095FFFCCFA8
:1000D00080939C00089580919B0087FFFCCF8091C6
:1000E0009C0008958A3010F4805D03C0803110F4C4
:1000F000895CEACF80E2FDCFCF93C82F82958F70C5
:10010000F1DF8C2F8F70CF91EDCF90910001E92F0F
:10011000F0E0EE5FFE4F80838D3049F481E090E0A7
:1001200090930202809301021092000108959F5F54
:10013000909300010895B89A85ED8A95F1F7000033
:10014000BA9A85ED8A95F1F70000B89885ED8A9501
:10015000F1F70000BA9885ED8A95F1F7000010924A
:100160000101B29905C0809101018F5F8093010167
:10017000B09905C0809101018F5F8093010185EDE9
:100180008A95F1F7000085ED8A95F1F7000085ED7D
:100190008A95F1F7000085ED8A95F1F70000089542
:1001A000BA98B898C298C098C6DFC5CFBA9A85EDFC
:1001B0008A95F1F70000B89A85ED8A95F1F700006D
:1001C000089598E087FD02C0BA9A01C0BA9825ED5B
:1001D0002A95F1F70000B89825ED2A95F1F700006F
:1001E000B89A880F915071F7BA9885ED8A95F1F712
:1001F0000000B89825ED2A95F1F7000086B3B89A6B
:1002000082FB882780F90895282FBA9898E080E02B
:10021000880FB89835ED3A95F1F70000B2998160F2
:10022000B89A35ED3A95F1F70000915089F7211110
:1002300002C0BA9A01C0BA9895ED9A95F1F70000FC
:10024000B89835ED3A95F1F70000B89A95ED9A9582
:10025000F1F70000BA9808951BBA1ABA18BA8FEFCE
:1002600087BB15BA14BA12BA8BEB81BB13B812B89C
:10027000109262001092610008959093980080930C
:10028000990088E980939A008EE080939D000895FC
:100290001F920F920FB60F9211240BB60F922F934D
:1002A0003F934F935F936F937F938F939F93AF93FE
:1002B000BF93EF93FF930FDF28DFFF91EF91BF9183
:1002C000AF919F918F917F916F915F914F913F91EE
:1002D0002F910F900BBE0F900FBE0F901F9018958F
:1002E000BBDF87E690E0C9DF5BDF2FEF83ED90E3B4
:1002F000215080409040E1F700C00000789456DF24
:100300008FE99FE00197F1F700C0000014DF8AE257
:10031000DBDE8DE0D9DE4ADF82E353DF80E551DFAB
:100320000ADF8FE39CE90197F1F700C000003EDF90
:1003300083E347DF8FE39FE10197F1F700C00000FF
:1003400080E062DFE82E8FE39FE10197F1F700C0C4
:10035000000080E059DFF82E8FE39FE10197F1F76D
:1003600000C0000080E050DF082F8FE39FE101977D
:10037000F1F700C0000080E047DF182F8FE39FE116
:100380000197F1F700C0000080E03EDFD82F8FE337
:100390009FE10197F1F700C0000081E035DFC82F31
:1003A000CADE8E2DA9DE8F2DA7DE8DE08DDE802F9B
:1003B000A3DE812FA1DE8DE087DE8D2F9DDE8C2FC9
:1003C0009BDE8DE081DE9FEF26E181E191502040B0
:0E03D0008040E1F700C000009ACFF894FFCF04
:00000001FF
