:1000000045C0000061C000005FC000005DC000008E
:100010005BC0000059C0000057C0000055C0000080
:1000200053C000002FC100004FC000004DC00000B1
:100030004BC0000049C0000047C0000075C100006F
:1000400043C0000041C000003FC000003DC00000B0
:100050003BC00000E3C0000037C0000035C0000016
:1000600033C0000031C000002FC000002DC00000D0
:100070002BC0000029C000009DC1000025C0000069
:1000800023C0000021C000001FC0000011241FBEBB
:10009000CFEFD0E1DEBFCDBF11E0A0E0B1E0E4E002
:1000A000F3E100E00BBF02C007900D92A630B1074C
:1000B000D9F722E0A6E0B1E001C01D92AB36B2074D
:1000C000E1F7B3D50C9480099BCFEBE9F0E0908188
:1000D00095FFFDCF80939C000895EBE9F0E08081CF
:1000E0008823ECF780919C0008958A3040F490E3D7
:1000F000980F02C097E3980F892FE7CF08958031BA
:10010000C8F3FACFCF93C82F82958F70EEDF8C2F74
:100110008F70EBDFCF91089590910601E92FF0E009
:10012000EF5EFE4F80838D3049F481E090E0909344
:100130001102809310021092060108959F5F909320
:10014000060108951BBA8FEF8ABB18BA87BB98E7E0
:1001500095BB97E894BB12BA11BA13B882B9109242
:10016000620080EF80936100089513BE10BE12BE3E
:1001700080E481BF88E083BF87B7826087BF08952E
:1001800015BC14BC89EF83BD8CE085BD87B7806842
:1001900087BF08951EBC1DBC1CBC1BBC88EC8ABD5F
:1001A00019BC88BD109279008093780017BC8FEF3E
:1001B00086BD88EA8FBD81E18EBD0895EAE8F0E052
:1001C000108210928900109288001092870010927D
:1001D000860010928500109284001092830088ECB3
:1001E00080938200109281008FEF8093800088EAD4
:1001F00080938B0081E18083089590939800809391
:10020000990088E980939A008EE080939D0008957C
:1002100086B18D6886B93E9A369A08951F920F92DC
:100220000FB60F9211248F939F9380912002882301
:1002300019F0813089F01EC084B195B190934C02C1
:1002400080934B0284B195B18093380281E487B9E1
:1002500081E0809320020EC084B195B19093280272
:100260008093270284B195B18093380280E487B9E6
:1002700010922002369A9F918F910F900FBE0F908F
:100280001F9018951F920F920FB60F9211240BB664
:100290000F928F939F93EF93FF93809136029091EB
:1002A0003702019690933702809336020A9789F5B8
:1002B000809134029091350201969093350280939B
:1002C000340280914202909143020196909343023E
:1002D0008093420280912602833031F4E2E6F0E01E
:1002E00080818058808307C0813029F4E2E6F0E005
:1002F00080818068808380915E02882331F0E2E60D
:10030000F0E0908180E2892780831092370210927A
:100310003602FF91EF919F918F910F900BBE0F903E
:100320000FBE0F901F9018951F920F920FB60F924D
:1003300011242F938F939F9321E020936402809147
:10034000660290916702019690936702809366021D
:10035000809141028F5F8093410220934D028091F2
:100360001A02813051F018F0823069F011C083B365
:1003700080936502A89AAA980BC083B38093300239
:10038000AA9AA99805C083B380931B02A99AA8983A
:1003900080911A02823020F48F5F80931A0202C08B
:1003A00010921A029F918F912F910F900FBE0F9074
:1003B0001F9018951F920F920FB60F9211240BB633
:1003C0000F922F933F934F935F936F937F938F93EE
:1003D0009F93AF93BF93EF93FF937FDE9DDEFF91DB
:1003E000EF91BF91AF919F918F917F916F915F91AD
:1003F0004F913F912F910F900BBE0F900FBE0F901A
:100400001F901895E199FECF9FBB8EBB6DBBE29A02
:10041000E19A0895E199FECF9FBB8EBBE09A8DB320
:1004200008951F93CF93DF93182F60933102CB0170
:100430009927EB012A968C179D0758F4612FE2DF6C
:10044000809131028F5F8093310290E08C179D077D
:10045000A8F3DF91CF911F910895CF92DF92EF9291
:10046000FF920F931F93CF93DF937C016B016093F7
:100470003102CB0199278B01065F1F4F801791072F
:1004800080F4EC01CC19DD09CE0DDF1DC3DF8883BC
:10049000809131028F5F8093310290E08017910745
:1004A00080F3DF91CF911F910F91FF90EF90DF903C
:1004B000CF900895CF92DF92EF92FF926091680201
:1004C00070E080E090E003D66B017C016091040154
:1004D0007091050180E090E0FAD520E030E048EC32
:1004E00052E461D59B01AC01C701B60182D66B0114
:1004F0007C0160934402709345028093460290937E
:10050000470220E030E04FE753E46FD6181634F48A
:10051000C701B601B0D56BBBAF9A05C0C701B60124
:10052000AAD56BBBAF98FF90EF90DF90CF90089566
:100530001BBAAF980895CF938091300286FDC8C052
:1005400080912A02813009F4C7C0809169028F5FCF
:1005500080936902883C09F0BFC080912E028130EF
:1005600009F582E080932E021092690281E0809367
:100570002A02DEDF82E5A9DD8FE4A7DD8BE4A5DDBD
:1005800081E4A3DD8DE0A1DD82E59FDD89E49DDDD1
:1005900082E49BDD80E0B6DD80916802B3DD8DE012
:1005A00094DD9AC0823001F583E080932E02109290
:1005B000690281E080932A0282E587DD8FE485DD90
:1005C0008BE483DD82E481DD8DE07FDD82E57DDD0E
:1005D00082E47BDD81E479DD80E094DD809121029D
:1005E00091DD8DE072DD78C0833001F584E0809389
:1005F0002E021092690281E080932A0282E565DD75
:100600008FE463DD8BE461DD83E45FDD8DE05DDD40
:1006100082E55BDD82E459DD82E457DD80E072DD56
:1006200080913E026FDD8DE050DD56C0843009F0D0
:1006300053C081E080932E021092690280932A02B7
:10064000109287008091210280938600109285008D
:1006500080912102809384001092830080913E0259
:10066000809382001BBC80913E028ABD23DF82E51D
:100670002CDD8FE42ADD8BE428DD84E426DD8DE0AB
:1006800024DD80916102811109C082E51EDD8FE4C5
:100690001CDD81E41ADD8DE018DD0AC0813041F4F3
:1006A00082E513DD8FE411DD82E40FDD8DE00DDDE9
:1006B00068EC70E080916802B4DE62ED70E08091D9
:1006C0002102AFDE6CED70E080913E02AADE04C034
:1006D0001092690210922A028091300285FD61C059
:1006E00080913B02813009F460C0809133028F5FBA
:1006F000883C19F08093330258C0109233028091E5
:100700002E02813009F451C081E080932E02809343
:100710003B02109287008091210280938600109204
:100720008500809121028093840010928300809143
:100730003E02809382001BBC80913E028ABDBADEDD
:1007400082E5C3DC8FE4C1DC8BE4BFDC84E4BDDC88
:100750008DE0BBDC80916102811109C082E5B5DCCE
:100760008FE4B3DC81E4B1DC8DE0AFDC0AC0813022
:1007700041F482E5AADC8FE4A8DC82E4A6DC8DE00B
:10078000A4DC68EC70E0809168024BDE62ED70E002
:100790008091210246DE6CED70E080913E0241DEE8
:1007A00004C01092330210923B028091300284FD0B
:1007B0005AC080914F028F5F843619F080934F02A8
:1007C00056C010924F0280912E028230C1F4809167
:1007D0006802863918F48F5F8093680281E0809305
:1007E0005D0282E572DC89E470DC82E46EDC80E02C
:1007F00089DC8091680286DC8DE067DC38C083305C
:10080000C1F4809121028A3F18F48F5F8093210206
:1008100081E080935D0282E558DC82E456DC81E46D
:1008200054DC80E06FDC809121026CDC8DE04DDCDB
:100830001EC08430E1F480913E028A3F18F48F5F3D
:1008400080933E0281E080935D0282E53EDC82E49B
:100850003CDC82E43ADC80E055DC80913E0252DCF4
:100860008DE033DC04C010924F0210925D02809143
:10087000300283FD5AC080913F028F5F843619F0A9
:1008800080933F0256C010923F0280912E02823028
:10089000C1F480916802853118F08150809368021C
:1008A00081E08093500282E510DC89E40EDC82E472
:1008B0000CDC80E027DC8091680224DC8DE005DC24
:1008C00038C08330C1F480912102823018F0815009
:1008D0008093210281E08093500282E5F6DB82E47E
:1008E000F4DB81E4F2DB80E00DDC809121020ADCA4
:1008F0008DE0EBDB1EC08430E1F480913E0282305B
:1009000018F0815080933E0281E08093500282E58E
:10091000DCDB82E4DADB82E4D8DB80E0F3DB8091AD
:100920003E02F0DB8DE0D1DB04C010923F0210925A
:10093000500280911B0286FD21C01092120210927B
:10094000290280913A02813009F43CC08091390239
:100950008F5F883C18F48093390234C010923902BA
:1009600081E080933A028093610282E5AEDB8FE4FE
:10097000ACDB82E4AADB8DE0A8DB24C01092390254
:1009800010923A02809112028130E1F080912902A6
:100990008F5F883C18F48093290214C010922902BA
:1009A00081E0809312021092610282E58EDB8FE477
:1009B0008CDB81E48ADB8DE088DBE2E6F0E080819D
:1009C0008F7B808380911B0285FD19C010921F02CE
:1009D00010923D0280914E02813049F180914A028D
:1009E0008F5F883C18F480934A0221C010924A021B
:1009F00081E080934E028EE18093620218C01092D3
:100A00004E0210924A0280911F02813081F0809143
:100A10003D028F5F883C18F480933D0208C010921D
:100A20003D0281E080931F028AE080936202809100
:100A30001B0284FD23C01092320210924902809161
:100A40001502813009F43BC080915F028F5F883CC2
:100A500018F480935F0233C010925F0281E08093AC
:100A6000150282E532DB8FE430DB84E52EDB80E5A6
:100A70002CDB8DE02ADB10922F0221C01092150290
:100A800010925F02809132028130C9F08091490258
:100A90008F5F883C18F48093490211C0109249027C
:100AA000C1E0C093320282E510DB8FE40EDB84E507
:100AB0000CDB8EE40ADB8DE008DBC0932F02209173
:100AC000650226FD1AC0809119028130E1F0809103
:100AD0001302909114020196803931E0930729F0B6
:100AE00090931402809313020EC01092140210927D
:100AF000130281E080935E0206C0109214021092ED
:100B000013021092190225FD2FC0809161028823E3
:100B100059F180912602833039F180912F028111A1
:100B200023C080913C02813019F180916A028F5F6D
:100B300080936A02883CE1F410926A02E2E6F0E0F7
:100B4000908180E48927808381E080932B028093C9
:100B50003C0282E5BADA8FE4B8DA84E5B6DA83E5F6
:100B6000B4DA8DE0B2DA04C010926A0210923C024C
:100B70008091650284FD0FC080916302813079F01D
:100B8000809140028F5F80934002883C41F4109234
:100B9000400290DC04C01092400210926302109256
:100BA0006402CF91089550E061E021E009C021E0A6
:100BB000260F2A3018F0209318021CC0562F622FDF
:100BC000852F90E0DC01A95FBE4FE22FF0E0E95FE6
:100BD000FE4F4C913081431306C0FC01EF5AFD4F8C
:100BE00080818F5F80832F5F2A3050F36A30F8F264
:100BF00020931802509151027091170221E532E0C2
:100C00008BE592E0F9016E2F621B4191541710F4AD
:100C1000762F542FE817F907B1F78AE08093310255
:100C200050936002709317020895F8948BDA9DDA5E
:100C3000A7DAB0DAC3DA87E690E0DFDAE9DA7894A7
:100C40002FEF83ED90E3215080409040E1F700C00A
:100C50000000109267021092660221E020932E029B
:100C60008BE490E090935C0280935B0280E390E0E1
:100C700090932302809322022093260268EC70E076
:100C800087E091E0EADB80911E028DDFE0911702A0
:100C9000F0E0E95FFE4F80818093680284518338E1
:100CA00030F084E18093680268EC70E0BADB8091F8
:100CB0001E02882329F068EC70E080916802B1DBA5
:100CC00062ED70E087E091E0C8DB80911E026BDF8F
:100CD000E0911702F0E0E95FFE4F808180932102EE
:100CE00090911E02992319F062ED70E09ADB6CED91
:100CF00070E087E091E0B1DB80911E0254DFE0916B
:100D00001702F0E0E95FFE4F808180933E029091F0
:100D10001E02992319F06CED70E083DB10928700BE
:100D2000809121028093860010928500809121029B
:100D3000809384001092830080913E028093820011
:100D40001BBC80913E028ABD83B7876083BF82E56A
:100D5000BCD98FE4BAD982E4B8D98DE0B6D9C2E65D
:100D6000D0E0662463946894552452F80F2EF3E083
:100D70008F2EF02D6894772471F86894992496F852
:100D80000F2EFBE5AF2EF2E0BF2EF02D02E212E0B7
:100D900080915E02813071F4CBDB70925E028881BB
:100DA0008F7D888388818F7B888310923502109293
:100DB00034024CC0823091F480913402909135021B
:100DC000883C910508F442C080925E02809226021F
:100DD00071DB109235021092340238C0833089F4EE
:100DE0008091340290913502883E934078F1A0DBE7
:100DF0006092260250925E021092350210923402E6
:100E000025C0843089F48091340290913502883C69
:100E10009105E0F04FDB6092260210925E02109284
:100E200035021092340212C0811110C08091340238
:100E3000909135020A9750F088818F7D8883888150
:100E40008F7B8883109235021092340280912B029E
:100E50008130B9F580914202909143024997A0F008
:100E600080912C0290912D02019690932D028093F7
:100E70002C021092430210924202888189258883B5
:100E800010924302109242022091620230E080915F
:100E90002C0290912D028217930798F0888180642C
:100EA000888310922B0210922D0210922C0282E560
:100EB0000CD98FE40AD984E508D980E506D98DE0FC
:100EC00004D98FE99FE00197F1F700C000008091FD
:100ED0006402813009F42FDB60914B0270914C0267
:100EE00080E090E0F4D06B017C0160910201709190
:100EF000030180E090E0EBD09B01AC01C701B6019B
:100F000078D120E030E048EC52E44DD0B4D070937A
:100F10005C0260935B02609127027091280280E07E
:100F200090E0D5D06B017C016091000170910101CE
:100F300080E090E0CCD09B01AC01C701B60159D153
:100F400020E030E048EC52E42ED095D0709323029C
:100F50006093220280912E02813009F019CF809196
:100F60004102803F08F414CF1092410282E5ADD8CF
:100F700089E4ABD881E4A9D880915C02C3D8F5019B
:100F80008081C0D88DE0A1D882E59FD885E59DD825
:100F900081E49BD880912302B5D8F8018081B2D832
:100FA0008DE093D8F5CE0CD0E6C0DED040F0D5D0A1
:100FB00030F021F45F3F19F0C7C0511110C1CAC011
:100FC000EBD098F39923C9F35523B1F3951B550B37
:100FD000BB27AA2762177307840738F09F5F5F4F0C
:100FE000220F331F441FAA1FA9F333D00E2E3AF04D
:100FF000E0E830D091505040E695001CCAF729D067
:10100000FE2F27D0660F771F881FBB1F26173707B5
:101010004807AB07B0E809F0BB0B802DBF01FF27E5
:1010200093585F4F2AF09E3F510568F08DC0D7C09E
:101030005F3FECF3983EDCF3869577956795B7951F
:10104000F7959F5FC9F7880F911D9695879597F93A
:101050000895E1E0660F771F881FBB1F62177307B3
:101060008407BA0720F0621B730B840BBA0BEE1FC8
:1010700088F7E095089598D088F09F5790F0B92FA1
:101080009927B751A0F0D1F0660F771F881F991FDD
:101090001AF0BA95C9F712C0B13081F09FD0B1E013
:1010A00008959CC0672F782F8827B85F39F0B93F23
:1010B000CCF3869577956795B395D9F73EF49095DF
:1010C0008095709561957F4F8F4F9F4F0895E8945D
:1010D00009C097FB3EF490958095709561957F4F80
:1010E0008F4F9F4F9923A9F0F92F96E9BB2793952E
:1010F000F695879577956795B795F111F8CFFAF43E
:10110000BB0F11F460FF1BC06F5F7F4F8F4F9F4F6E
:1011100016C0882311F096E911C0772321F09EE8CC
:10112000872F762F05C0662371F096E8862F70E032
:1011300060E02AF09A95660F771F881FDAF7880F0C
:101140009695879597F9089597F99F6780E870E0DD
:1011500060E008959FEF80EC089500240A9416162D
:10116000170618060906089500240A941216130695
:10117000140605060895092E0394000C11F4882323
:1011800052F0BB0F40F4BF2B11F460FF04C06F5F3F
:101190007F4F8F4F9F4F089557FD9058440F551F15
:1011A00059F05F3F71F04795880F97FB991F61F0E9
:1011B0009F3F79F087950895121613061406551F60
:1011C000F2CF4695F1DF08C0161617061806991FCC
:1011D000F1CF86957105610508940895E894BB27C1
:1011E00066277727CB0197F9089566D008F48FEF2B
:1011F00008950BD0C0CFB1DF28F0B6DF18F09523EB
:1012000009F0A2CFA7CF1124EACFC6DFA0F3959FA4
:10121000D1F3950F50E0551F629FF001729FBB27DD
:10122000F00DB11D639FAA27F00DB11DAA1F649F89
:101230006627B00DA11D661F829F2227B00DA11D3C
:10124000621F739FB00DA11D621F839FA00D611DC2
:10125000221F749F3327A00D611D231F849F600DE3
:10126000211D822F762F6A2F11249F5750408AF01C
:10127000E1F088234AF0EE0FFF1FBB1F661F771FA8
:10128000881F91505040A9F79E3F510570F05CCFE8
:10129000A6CF5F3FECF3983EDCF386957795679594
:1012A000B795F795E7959F5FC1F7FE2B880F911DC6
:1012B0009695879597F90895990F0008550FAA0BF1
:1012C000E0E8FEEF16161706E807F907C0F0121659
:1012D0001306E407F50798F0621B730B840B950B5C
:1012E00039F40A2661F0232B242B252B21F40895B1
:1012F0000A2609F4A140A6958FEF811D811D08954E
:04130000F894FFCF8F
:061304002E0035009100EF
:00000001FF
