S00C0000504943482E73726563F4
S11300004DC0000069C0000067C0000065C000006A
S113001063C0000061C000005FC000005DC000005C
S11300205BC00000A9C1000057C0000055C000001B
S113003053C0000051C000004FC0000035C1000093
S11300404BC0000049C0000047C0000045C000008C
S113005043C0000041C000003FC000003DC000009C
S11300603BC0000039C0000037C0000035C00000AC
S113007033C0000031C00000EFC000002DC00000FC
S11300802BC0000029C0000027C000006E017501CC
S11300907C0183018A01910198019F0111241FBEF3
S11300A0CFEFD0E1DEBFCDBF11E0A0E0B1E0E0E3EF
S11300B0F3E200E00BBF02C007900D92A231B1073A
S11300C0D9F722E0A2E1B1E001C01D92A534B20744
S11300D0E1F7D6D20C94961193CFEBE9F0E090813E
S11300E095FFFDCF80939C000895EBE9F0E08081BB
S11300F08823ECF780919C000895109214011092CB
S11301001301582F99276817790784F120E030E00C
S1130110FC01EB5EFE4F408180ED840F8A3058F481
S113012022953295307F3227207F3227842F90E02A
S1130130C097282B392B8FEB840F863068F4C901C4
S113014082959295907F9827807F9827242F30E07E
S113015027533109282B392B5F5F852F90E06817CF
S11301607907B4F630931401209313010895909104
S11301701201E92FF0E0EB5EFE4F80838D3049F4ED
S113018081E090E090931502809314021092120182
S113019008959F5F9093120108951BBA8FEF8ABB55
S11301A018BA87BB15BA84BB12BA9BEB91BB13B8C0
S11301B09FEB92B91092620080936100089513BE80
S11301C010BE12BE80E481BF8BE083BF87B782601C
S11301D087BF089515BC14BC8CE783BD8DE085BD35
S11301E087B7806887BF08951EBC1DBC1CBC1BBCA0
S11301F01ABC19BC18BC109279001092780017BC74
S113020016BC1FBC86E08EBD0895EAE8F0E01082BB
S11302101092890010928800109287001092860034
S11302201092850010928400109283001092820034
S1130230109281001092800010928B0086E08083DF
S11302400895909398008093990088E980939A0088
S11302508EE080939D0008951F920F920FB60F9227
S113026011240BB60F922F933F934F935F936F9389
S11302707F938F939F93AF93BF93EF93FF9335DF58
S113028076DFFF91EF91BF91AF919F918F917F9115
S11302906F915F914F913F912F910F900BBE0F90F3
S11302A00FBE0F901F9018951F920F920FB60F92CA
S11302B011240BB60F928F939F93AF93BF93EF9339
S11302C0FF938FEF85BB8091170290E088309105F2
S11302D0E0F5FC01EA5BFF4F0C946D11949A809158
S11302E02D02809585BBDB9830C0DB9A80912E026D
S11302F0809585BBDA9829C0DA9A80912F0280957F
S113030085BBD99822C0D99A80913002809585BB4B
S1130310D8981BC0D89A80913902809585BB919852
S113032014C0919A80913A02809585BB95980DC02E
S1130330959A80913B02809585BB979806C0979AC1
S113034080913C02809585BB9498809117028830F7
S113035020F48F5F8093170202C010921702FF915E
S1130360EF91BF91AF919F918F910F900BBE0F9022
S11303700FBE0F901F9018951F920F920FB60F92F9
S113038011240BB60F928F939F93EF93FF93809159
S113039031028F5F809331028D37C8F08CB59DB5E3
S11303A090932C0280932B021DBC1CBCE8E8F0E067
S11303B0808191819093200280931F021182108288
S11303C01092310281E08093160280931802FF910B
S11303D0EF919F918F910F900BBE0F900FBE0F90D6
S11303E01F90189580911701813489F466E070E0BC
S11303F083E090E082DE8091130180933F0281E0EC
S113040080931802109215021092140208958234F7
S1130410C1F466E070E083E090E06FDE8091130148
S11304209091140180931A02992790932402809347
S1130430230281E080931802109215021092140294
S113044008958FE34ADE1092150210921402089563
S113045080911701813489F466E070E083E090E0D4
S11304604CDE809113018093290281E0809318026D
S1130470109215021092140208958FE32EDE10924A
S11304801502109214020895809117018134C1F469
S113049066E070E083E090E030DE8091130190919B
S11304A0140180931B0299279093240280932302C2
S11304B081E080931802109215021092140208959C
S11304C08234C1F466E070E083E090E016DE80914F
S11304D0130190911401809333029927909324027D
S11304E08093230281E080931802109215021092E7
S11304F0140208958FE3F1DD109215021092140294
S11305000895809117018134B1F481E0809344020D
S11305101092150210921402E2E6F0E080818062EB
S1130520808380818068808380818F7B80838081C9
S11305308F7E808308958234B1F482E080934402F4
S11305401092150210921402E2E6F0E080818064B9
S1130550808380818061808380818F7D808380819E
S11305608F77808308958A3541F48EE180933D022C
S1130570109215021092140208958B34B9F583E099
S11305808093440280911801813451F481E0809376
S113059038028093180210921502109214020895E2
S11305A0823459F482E08093380281E08093180207
S11305B010921502109214020895833459F483E0C2
S11305C08093380281E080931802109215021092F1
S11305D0140208958434D1F51092380281E0809396
S11305E0180210921502109214020895843541F5F0
S11305F080911801803561F410923E0281E080936D
S11306001E0280931802109215021092140208958B
S11306108E3451F410921E0281E0809318021092DD
S11306201502109214020895833581F481E08093B9
S11306303E0280931802109215021092140208953B
S11306408FE34BDD109215021092140208958091ED
S11306501601893411F4C6CE0895853511F4F8CE07
S11306600895823411F410CF08958F3411F449CFD2
S113067008958FE332DD109215021092140208954A
S1130680F8948BDD9CDDB0DDA5DDBFDD87E690E071
S1130690D8DD81E08093440210923802789410925D
S11306A02402109223028091070180932D028093EB
S11306B02E0280932F0280933002209121023091E8
S11306C02202C90160E177E20E945A11E8EEF3E0E8
S11306D0BF010E945A11DB01A95FBE4F8C91809328
S11306E03902C901BF010E945A11E4E6F0E0BF01DA
S11306F00E945A11DB01A95FBE4F8C9180933A028C
S1130700C901BF010E945A11EAE0F0E0BF010E9452
S11307105A11DB01A95FBE4F8C9180933B02C90142
S1130720BF010E945A11FC01E95FFE4F8081809352
S11307303C028FE99FE00197F1F700C000000F2E03
S1130740F0E1AF2EF7E2BF2EF02D0F2EF8EECF2EF4
S1130750F3E0DF2EF02D0F2EF4E69F2EF02D0F2E5A
S1130760FAE3EF2EF2E0FF2EF02D0F2EF1E02F2E04
S1130770F1E03F2EF02DCCE3D2E001E0AFE8B1E0B0
S11307801197F1F700C0000080911802813011F038
S11307900C94B60F10914402113079F480913F0209
S11307A090E090932202809321028091290290E0AC
S11307B0909324028093230272C0123009F06FC018
S11307C080911E02811132C080911F0290912002FB
S11307D0883EB3E09B0728F4109222021092210273
S11307E011C0893FE1E19E0738F080E19EE09093DB
S11307F022028093210206C0885E934090932202D5
S11308008093210280912B0290912C02883EA3E0D8
S11308109A0728F4109224021092230240C0885EA2
S11308209340909324028093230239C08130B9F518
S113083080912A02813099F5809134029091350299
S1130840883EB3E09B0728F4109222021092210202
S113085011C0893FE1E19E0738F080E19EE090936A
S113086022028093210206C0885E93409093220264
S11308708093210280911C0290911D02883EA3E086
S11308809A0728F4109224021092230206C0885E6C
S11308909340909324028093230210922A02809121
S11308A03E02813009F047C080911602813009F080
S11308B08CC0009332021092160260911F02709154
S11308C0200280E090E00E94CC109B01AC0160917A
S11308D040027091410280914202909143020E9431
S11308E0D40F60934002709341028093420290932C
S11308F0430260912B0270912C0280E090E00E94F0
S1130900CC109B01AC01609125027091260280916C
S11309102702909128020E94D40F609325027093BD
S113092026028093270290932802809136028F5FDB
S1130930809336024AC0811148C0809132028130CE
S113094009F043C000932A021092320260913602E9
S113095070E080E090E00E94CE102B013C019B01EE
S1130960AC016091400270914102809142029091E9
S113097043020E9438100E94A010709335026093C5
S11309803402A301920160912502709126028091A4
S11309902702909128020E9438100E94A0107093A0
S11309A01D0260931C0210924002109241021092A8
S11309B042021092430210922502109226021092D3
S11309C02702109228021092360280913802811177
S11309D021C7113009F034C480912302909124027C
S11309E08A3091050CF0ADC08C9DA0018D9D500DF9
S11309F09C9D500D11249A01329522952F70232726
S1130A003F702327A7E4B3E00E947311969587955E
S1130A1096958795969587958A9D90018B9D300D27
S1130A209A9D300D1124FA01E21BF30B9F013695B8
S1130A3027953695279536952795A5ECB0E20E9423
S1130A407311929582958F7089279F708927FC0175
S1130A50E95FFE4F80818068ADE2B2E08C939A0139
S1130A60369527953695279536952795A5ECB0E2CA
S1130A700E947311929582958F7089279F708927A0
S1130A808C9D90018D9D300D9C9D300D1124FA019B
S1130A90E21BF30B9F013695279536952795ABE717
S1130AA0B4E10E94731196958795FC01E95FFE4FAE
S1130AB08081AEE2B2E08C939A0136952795369503
S1130AC02795ABE7B4E10E94731196958795989E9C
S1130AD09001999E300D1124FA01E21BF30B9F0142
S1130AE0ADECBCEC0E94731196958795969587950D
S1130AF096958795FC01E95FFE4F8081AFE2B2E0F5
S1130B008C939A01ADECBCEC0E9473119695879579
S1130B1096958795969587959C01220F331F880F8C
S1130B20991F880F991F880F991F820F931F481BC5
S1130B30590BFA01E95FFE4F8081E0E3F2E0808324
S1130B4069C19C012A5031092A35310508F0ABC02E
S1130B50989EA001999E500D11249A0132952295D8
S1130B602F7023273F702327A7E4B3E00E9473115B
S1130B709695879596958795969587958A9D9001E4
S1130B808B9D300D9A9D300D1124CA01821B930B4D
S1130B909C01369527953695279536952795A5EC8E
S1130BA0B0E20E947311929582958F7089279F708D
S1130BB08927FC01E95FFE4F8081ADE2B2E08C93AE
S1130BC09A01369527953695279536952795A5EC60
S1130BD0B0E20E947311929582958F7089279F705D
S1130BE089278C9D90018D9D300D9C9D300D112485
S1130BF0FA01E21BF30B9F0136952795369527954D
S1130C00ABE7B4E10E94731196958795FC01E95F07
S1130C10FE4F80818068AEE2B2E08C939A013695F3
S1130C20279536952795ABE7B4E10E947311969505
S1130C308795989E9001999E300D1124FA01E21B2C
S1130C40F30B9F01ADECBCEC0E9473119695879554
S1130C509695879596958795FC01E95FFE4F80816F
S1130C60AFE2B2E08C939A01ADECBCEC0E9473113C
S1130C709695879596958795969587959C01220FCD
S1130C80331F880F991F880F991F880F991F820F90
S1130C90931F481B590BFA01E95FFE4F8081E0E383
S1130CA0F2E08083B7C09C012456310924383340D4
S1130CB008F0B0C0AC01440F551F880F991F880F6E
S1130CC0991F880F991F480F591F9A013295229531
S1130CD02F7023273F702327A7E4B3E00E947311EA
S1130CE09695879596958795969587958A9D900173
S1130CF08B9D300D9A9D300D1124CA01821B930BDC
S1130D009C01369527953695279536952795A5EC1C
S1130D10B0E20E947311929582958F7089279F701B
S1130D208927FC01E95FFE4F8081ADE2B2E08C933C
S1130D309A01369527953695279536952795A5ECEE
S1130D40B0E20E947311929582958F7089279F70EB
S1130D5089278C9D90018D9D300D9C9D300D112413
S1130D60FA01E21BF30B9F013695279536952795DB
S1130D70ABE7B4E10E94731196958795FC01E95F96
S1130D80FE4F8081AEE2B2E08C939A0136952795AE
S1130D9036952795ABE7B4E10E9473119695879534
S1130DA0989E9001999E300D1124FA01E21BF30BD9
S1130DB09F01ADECBCEC0E947311969587959695B6
S1130DC0879596958795FC01E95FFE4F8081806841
S1130DD0AFE2B2E08C939A01ADECBCEC0E947311CB
S1130DE09695879596958795969587959C01220F5C
S1130DF0331F880F991F880F991F880F991F820F1F
S1130E00931F481B590BFA01E95FFE4F8081E0E311
S1130E10F2E0808380912102909122028A30910530
S1130E200CF0AAC08C9DA0018D9D500D9C9D500D71
S1130E3011249A01329522952F7023273F7023277E
S1130E40A7E4B3E00E9473119695879596958795CC
S1130E50969587958A9D90018B9D300D9A9D300DB6
S1130E601124CA01821B930B9C0136952795369554
S1130E70279536952795A5ECB0E20E9473119295BB
S1130E8082958F7089279F708927FC01E95FFE4F47
S1130E9080818068A9E3B2E08C939A013695279506
S1130EA03695279536952795A5ECB0E20E947311E7
S1130EB0929582958F7089279F7089278C9D9001C8
S1130EC08D9D300D9C9D300D1124FA01E21BF30B16
S1130ED09F013695279536952795ABE7B4E10E9497
S1130EE0731196958795FC01E95FFE4F8081D701C8
S1130EF08C939A013695279536952795ABE7B4E1FF
S1130F000E94731196958795989E9001999E300D35
S1130F101124FA01E21BF30B9F01ADECBCEC0E941F
S1130F207311969587959695879596958795FC0167
S1130F30E95FFE4F8081ABE3B2E08C939A01ADECA4
S1130F40BCEC0E9473119695879596958795969516
S1130F5087959C01220F331F880F991F880F991FB3
S1130F60880F991F820F931F481B590BFA01E95FE1
S1130F70FE4F80818883F8C79C012A5031092A35A5
S1130F80310508F0A8C0989EA001999E500D112427
S1130F909A01329522952F7023273F702327A7E4C7
S1130FA0B3E00E94731196958795969587959695CB
S1130FB087958A9D90018B9D300D9A9D300D11244B
S1130FC0FA01E21BF30B9F01369527953695279579
S1130FD036952795A5ECB0E20E94731192958295FF
S1130FE08F7089279F708927FC01E95FFE4F8081FC
S1130FF0A9E3B2E08C939A01369527953695279507
S113100036952795A5ECB0E20E94731192958295CE
S11310108F7089279F7089278C9D90018D9D300D3D
S11310209C9D300D1124FA01E21BF30B9F013695B0
S1131030279536952795ABE7B4E10E9473119695F1
S11310408795FC01E95FFE4F80818068D7018C930E
S11310509A013695279536952795ABE7B4E10E941A
S1131060731196958795989E9001999E300D112441
S1131070FA01E21BF30B9F01ADECBCEC0E9473116F
S1131080969587959695879596958795FC01E95F42
S1131090FE4F8081ABE3B2E08C939A01ADECBCECE3
S11310A00E94731196958795969587959695879541
S11310B09C01220F331F880F991F880F991F880FD7
S11310C0991F820F931F481B590BFA01E95FFE4FCA
S11310D08081888349C79C012456310924383340D0
S11310E008F042C7AC01440F551F880F991F880FA1
S11310F0991F880F991F480F591F9A0132952295FD
S11311002F7023273F702327A7E4B3E00E947311B5
S11311109695879596958795969587958A9D90013E
S11311208B9D300D9A9D300D1124FA01E21BF30BB7
S11311309F01369527953695279536952795A5ECE5
S1131140B0E20E947311929582958F7089279F70E7
S11311508927FC01E95FFE4F8081A9E3B2E08C930B
S11311609A01369527953695279536952795A5ECBA
S1131170B0E20E947311929582958F7089279F70B7
S113118089278C9D90018D9D300D9C9D300D1124DF
S1131190FA01E21BF30B9F013695279536952795A7
S11311A0ABE7B4E10E94731196958795FC01E95F62
S11311B0FE4F8081D7018C939A01369527953695F9
S11311C02795ABE7B4E10E94731196958795989E95
S11311D09001999E300D1124FA01E21BF30B9F013B
S11311E0ADECBCEC0E947311969587959695879506
S11311F096958795FC01E95FFE4F80818068ABE39B
S1131200B2E08C939A01ADECBCEC0E9473119695FC
S1131210879596958795969587959C01220F331F00
S1131220880F991F880F991F880F991F820F931F8A
S1131230481B590BFA01E95FFE4F8081888394C6ED
S1131240123009F091C62091230230912402283EE5
S1131250B3E03B070CF0ACC0A901440F551F220FAB
S1131260331F220F331F220F331F420F531F9A01C4
S1131270329522952F7023273F702327A7E4B3E0EC
S11312800E9473119695879596958795969587955F
S11312908A9D90018B9D300D9A9D300D1124FA0189
S11312A0E21BF30B9F0136952795369527953695C6
S11312B02795A5ECB0E20E947311929582958F70E8
S11312C089279F708927FC01E95FFE4F8081806830
S11312D0ADE2B2E08C939A01369527953695279521
S11312E036952795A5ECB0E2FED7929582958F703E
S11312F089279F7089278C9D90018D9D300D9C9D21
S1131300300D1124FA01E21BF30B9F01369527954A
S113131036952795ABE7B4E1E6D796958795FC011A
S1131320E95FFE4F8081AEE2B2E08C939A0136957C
S1131330279536952795ABE7B4E1D5D7969587954C
S1131340989E9001999E300D1124FA01E21BF30B33
S11313509F01ADECBCECC7D796958795969587957C
S113136096958795FC01E95FFE4F8081AFE2B2E07C
S11313708C939A01ADECBCECB6D79695879596956F
S11313808795969587959C01220F331F880F991F87
S1131390880F991F880F991F820F931F481B590BA1
S11313A0FA01E95FFE4F8081E0E3F2E0808339C017
S11313B0C901885E9340843C924298F5C901B50105
S11313C079D7B60177D7FB01E95FFE4F8081ADE2A3
S11313D0B2E08C93C901B6016DD764E670E06AD7B8
S11313E0FB01E95FFE4F80818068EEE2F2E08083DA
S11313F0C90164E670E05ED76AE070E05BD7FB0188
S1131400E95FFE4F8081AFE2B2E08C93C9016AE0EC
S113141070E050D7FC01E95FFE4F8081E0E3F2E029
S113142080834091210250912202443651050CF0F0
S1131430A0C0949EF001959EF00D11249F01329559
S113144022952F7023273F702327A7E4B3E04BD7BF
S11314509695879596958795969587958A9D9001FB
S11314608B9D300D9A9D300D1124CF01821B930B5F
S11314709C01369527953695279536952795A5ECA5
S1131480B0E231D7929582958F7089279F70892712
S1131490DC01A95FBE4F8C918068A9E3B2E08C9314
S11314A09F01369527953695279536952795A5EC72
S11314B0B0E219D7929582958F7089279F708927FA
S11314C08C9D90018D9D300D9C9D300D1124CF017C
S11314D0821B930B9C013695279536952795ABE790
S11314E0B4E101D796958795DC01A95FBE4F8C9135
S11314F0D7018C939F013695279536952795ABE7B1
S1131500B4E1F1D696958795989E9001999E300DF9
S11315101124CF01821B930B9C01ADECBCECE3D6F0
S1131520969587959695879596958795DC01A95FFD
S1131530BE4F8C91ABE3B2E08C939F01ADECBCEC5D
S1131540D2D69695879596958795969587959C017D
S1131550220F331F880F991F880F991F880F991F17
S1131560820F931FE81BF90BE95FFE4F808188838C
S1131570FBC4CA01845691098438934008F0A7C07B
S1131580CA01880F991F440F551F440F551F440F5C
S1131590551F480F591F9A01329522952F70232702
S11315A03F702327A7E4B3E09ED69695879596953A
S11315B08795969587958A9D90018B9D300D9A9D70
S11315C0300D1124FA01E21BF30B9F013695279588
S11315D03695279536952795A5ECB0E284D6929555
S11315E082958F7089279F708927FC01E95FFE4FE0
S11315F08081A9E3B2E08C939A01369527953695BC
S1131600279536952795A5ECB0E26DD692958295EF
S11316108F7089279F7089278C9D90018D9D300D37
S11316209C9D300D1124FA01E21BF30B9F013695AA
S1131630279536952795ABE7B4E155D696958795CA
S1131640FC01E95FFE4F80818068D7018C939A0189
S11316503695279536952795ABE7B4E144D696950C
S11316608795989E9001999E300D1124FA01E21BF2
S1131670F30B9F01ADECBCEC36D696958795969509
S1131680879596958795FC01E95FFE4F8081ABE3D2
S1131690B2E08C939A01ADECBCEC25D69695879577
S11316A096958795969587959C01220F331F880FF1
S11316B0991F880F991F880F991F820F931F481B2A
S11316C0590BFA01E95FFE4F808188834DC4CA013A
S11316D0885E93408832934208F046C49A0132955A
S11316E022952F7023273F702327A7E4B3E0FBD56F
S11316F09695879596958795969587958A9D900159
S11317008B9D300D9A9D300D1124FA01E21BF30BD1
S11317109F01369527953695279536952795A5ECFF
S1131720B0E2E1D5929582958F7089279F708927C1
S1131730FC01E95FFE4F8081A9E3B2E08C939A013A
S1131740369527953695279536952795A5ECB0E2DD
S1131750CAD5929582958F7089279F7089278C9D11
S113176090018D9D300D9C9D300D1124FA01E21BDA
S1131770F30B9F013695279536952795ABE7B4E192
S1131780B2D596958795FC01E95FFE4F8081D7011C
S11317908C939A013695279536952795ABE7B4E156
S11317A0A2D596958795989E9001999E300D112407
S11317B0FA01E21BF30B9F01ADECBCEC94D59695BA
S11317C087959695879596958795FC01E95FFE4FD9
S11317D080818068ABE3B2E08C939A01ADECBCEC01
S11317E082D59695879596958795969587959C012C
S11317F0220F331F880F991F880F991F880F991F75
S1131800820F931F481B590BFA01E95FFE4F808139
S11318108883AAC3813009F01EC28091230290916B
S113182024028A3091050CF0A6C08C9DA0018D9DE8
S1131830500D9C9D500D11249A01329522952F70C4
S113184023273F702327A7E4B3E04DD596958795CA
S113185096958795969587958A9D90018B9D300DD9
S11318609A9D300D1124FA01E21BF30B9F0136956A
S113187027953695279536952795A5ECB0E233D56F
S1131880929582958F7089279F708927FC01E95F63
S1131890FE4F80818068ADE2B2E08C939A01369568
S11318A027953695279536952795A5ECB0E21BD557
S11318B0929582958F7089279F7089278C9D9001BE
S11318C08D9D300D9C9D300D1124FA01E21BF30B0C
S11318D09F013695279536952795ABE7B4E103D557
S11318E096958795FC01E95FFE4F8081AEE2B2E0F8
S11318F08C939A013695279536952795ABE7B4E1F5
S1131900F2D496958795989E9001999E300D112456
S1131910FA01E21BF30B9F01ADECBCECE4D4969509
S113192087959695879596958795FC01E95FFE4F77
S11319308081AFE2B2E08C939A01ADECBCECD3D4DD
S11319409695879596958795969587959C01220FF0
S1131950331F880F991F880F991F880F991F820FB3
S1131960931F481B590BFA01E95FFE4F8081E0E3A6
S1131970F2E080835BC19C012A5031092A3531058C
S113198008F0A4C0989EA001999E500D11249A01BC
S1131990329522952F7023273F702327A7E4B3E0C5
S11319A0A2D49695879596958795969587958A9DC1
S11319B090018B9D300D9A9D300D1124CA01821B1C
S11319C0930B9C0136952795369527953695279543
S11319D0A5ECB0E288D4929582958F7089279F7088
S11319E08927FC01E95FFE4F8081ADE2B2E08C9370
S11319F09A01369527953695279536952795A5EC22
S1131A00B0E271D4929582958F7089279F7089274F
S1131A108C9D90018D9D300D9C9D300D1124FA01FB
S1131A20E21BF30B9F013695279536952795ABE777
S1131A30B4E159D496958795FC01E95FFE4F808106
S1131A408068AEE2B2E08C939A013695279536957C
S1131A502795ABE7B4E147D496958795989E900176
S1131A60999E300D1124FA01E21BF30B9F01ADEC9A
S1131A70BCEC39D4969587959695879596958795D8
S1131A80FC01E95FFE4F8081AFE2B2E08C939A01E2
S1131A90ADECBCEC28D4969587959695879596954C
S1131AA087959C01220F331F880F991F880F991F58
S1131AB0880F991F820F931F481B590BFA01E95F86
S1131AC0FE4F8081E0E3F2E08083B0C09C012456A5
S1131AD031092438334008F0A9C0AC01440F551F24
S1131AE0880F991F880F991F880F991F480F591F36
S1131AF09A01329522952F7023273F702327A7E45C
S1131B00B3E0F1D3969587959695879596958795A5
S1131B108A9D90018B9D300D9A9D300D1124CA0130
S1131B20821B930B9C013695279536952795369500
S1131B302795A5ECB0E2D7D3929582958F7089272B
S1131B409F708927FC01E95FFE4F8081ADE2B2E01E
S1131B508C939A0136952795369527953695279532
S1131B60A5ECB0E2C0D3929582958F7089279F70BF
S1131B7089278C9D90018D9D300D9C9D300D1124E5
S1131B80FA01E21BF30B9F013695279536952795AD
S1131B90ABE7B4E1A8D396958795FC01E95FFE4FC6
S1131BA08081AEE2B2E08C939A0136952795369502
S1131BB02795ABE7B4E197D396958795989E9001C6
S1131BC0999E300D1124FA01E21BF30B9F01ADEC39
S1131BD0BCEC89D396958795969587959695879528
S1131BE0FC01E95FFE4F80818068AFE2B2E08C9334
S1131BF09A01ADECBCEC77D396958795969587952D
S1131C00969587959C01220F331F880F991F880F83
S1131C10991F880F991F820F931F481B590BFA01B4
S1131C20E95FFE4F8081E0E3F2E08083A0E0B1E071
S1131C308C91E9E3F2E08083D1018C91F7018083F8
S1131C40A6E0B1E08C91EBE3F2E08083A5E0B1E0A3
S1131C508C91888389C1823009F0C2C080912302AB
S1131C6090912402AC01440F551F880F991F880FCF
S1131C70991F880F991F480F591F9A013295229571
S1131C802F7023273F702327A7E4B3E02CD3969526
S1131C90879596958795969587958A9D90018B9DB6
S1131CA0300D9A9D300D1124FA01E21BF30B9F01B4
S1131CB0369527953695279536952795A5ECB0E268
S1131CC012D3929582958F7089279F708927FC0182
S1131CD0E95FFE4F80818068ADE2B2E08C939A01A7
S1131CE0369527953695279536952795A5ECB0E238
S1131CF0FAD2929582958F7089279F7089278C9D3F
S1131D0090018D9D300D9C9D300D1124FA01E21B34
S1131D10F30B9F013695279536952795ABE7B4E1EC
S1131D20E2D296958795FC01E95FFE4F8081AEE291
S1131D30B2E08C939A013695279536952795ABE7B3
S1131D40B4E1D1D296958795989E9001999E300DD5
S1131D501124FA01E21BF30B9F01ADECBCECC3D2DE
S1131D60969587959695879596958795FC01E95F55
S1131D70FE4F8081AFE2B2E08C939A01ADECBCECF3
S1131D80B2D29695879596958795969587959C0159
S1131D90220F331F880F991F880F991F880F991FCF
S1131DA0820F931F481B590BFA01E95FFE4F808194
S1131DB0E0E3F2E08083A0E0B1E08C91E9E3F2E0BB
S1131DC08083D1018C91F7018083A6E0B1E08C91EE
S1131DD0EBE3F2E08083A3E0B1E08C918883C4C09C
S1131DE0833009F0C1C08091230290912402AC0198
S1131DF0440F551F880F991F880F991F880F991F2B
S1131E00480F591F9A01329522952F7023273F704E
S1131E102327A7E4B3E067D296958795969587958F
S1131E20969587958A9D90018B9D300D9A9D300DD6
S1131E301124FA01E21BF30B9F0136952795369581
S1131E40279536952795A5ECB0E24DD292958295CB
S1131E508F7089279F708927FC01E95FFE4F80817D
S1131E608068ADE2B2E08C939A0136952795369559
S1131E70279536952795A5ECB0E235D292958295B3
S1131E808F7089279F7089278C9D90018D9D300DBF
S1131E909C9D300D1124FA01E21BF30B9F01369532
S1131EA0279536952795ABE7B4E11DD2969587958E
S1131EB0FC01E95FFE4F8081AEE2B2E08C939A01AF
S1131EC03695279536952795ABE7B4E10CD29695D0
S1131ED08795989E9001999E300D1124FA01E21B7A
S1131EE0F30B9F01ADECBCECFED1969587959695CE
S1131EF0879596958795FC01E95FFE4F8081AFE257
S1131F00B2E08C939A01ADECBCECEDD1969587953B
S1131F1096958795969587959C01220F331F880F78
S1131F20991F880F991F880F991F820F931F481BB1
S1131F30590BFA01E95FFE4F8081E0E3F2E0808310
S1131F40A0E0B1E08C91E9E3F2E08083D1018C91CF
S1131F50F7018083A6E0B1E08C91EBE3F2E08083AB
S1131F60A4E0B1E08C91888310921802809114024D
S1131F7090911502019711F00C94BE031092150272
S1131F801092140280911501823521F40E942703D6
S1131F900C94AB038FE30E946D0010921502109213
S1131FA014020C94AB035058BB27AA270ED048C187
S1131FB039D130F03ED120F031F49F3F11F41EF4BA
S1131FC02EC10EF4E095E7FB24C1E92F4AD180F33A
S1131FD0BA17620773078407950718F071F49EF522
S1131FE062C10EF4E0950B2EBA2FA02D0B01B9019E
S1131FF090010C01CA01A0011124FF27591B99F07B
S1132000593F50F4503E68F11A16F040A22F232F86
S1132010342F4427585FF3CF469537952795A795D6
S1132020F0405395C9F77EF41F16BA0B620B730B7D
S1132030840BBAF09150A1F0FF0FBB1F661F771FEE
S1132040881FC2F70EC0BA0F621F731F841F48F4A3
S1132050879577956795B795F7959E3F08F0B3CF29
S11320609395880F08F09927EE0F97958795089513
S11320700CD0E6C0DED040F0D5D030F021F45F3F84
S113208019F0C7C0511110C1CAC0EBD098F39923FD
S1132090C9F35523B1F3951B550BBB27AA27621728
S11320A07307840738F09F5F5F4F220F331F441F6D
S11320B0AA1FA9F333D00E2E3AF0E0E830D09150A5
S11320C05040E695001CCAF729D0FE2F27D0660F92
S11320D0771F881FBB1F261737074807AB07B0E8D1
S11320E009F0BB0B802DBF01FF2793585F4F2AF0E7
S11320F09E3F510568F08DC0D7C05F3FECF3983E1A
S1132100DCF3869577956795B795F7959F5FC9F743
S1132110880F911D9695879597F90895E1E0660FCC
S1132120771F881FBB1F621773078407BA0720F045
S1132130621B730B840BBA0BEE1F88F7E0950895AE
S113214098D088F09F5790F0B92F9927B751A0F0F5
S1132150D1F0660F771F881F991F1AF0BA95C9F737
S113216012C0B13081F09FD0B1E008959CC0672FB8
S1132170782F8827B85F39F0B93FCCF386957795E7
S11321806795B395D9F73EF49095809570956195D0
S11321907F4F8F4F9F4F0895E89409C097FB3EF4FB
S11321A090958095709561957F4F8F4F9F4F9923A0
S11321B0A9F0F92F96E9BB279395F695879577951E
S11321C06795B795F111F8CFFAF4BB0F11F460FFDE
S11321D01BC06F5F7F4F8F4F9F4F16C0882311F036
S11321E096E911C0772321F09EE8872F762F05C04A
S11321F0662371F096E8862F70E060E02AF09A95E5
S1132200660F771F881FDAF7880F9695879597F9D9
S1132210089597F99F6780E870E060E008959FEF64
S113222080EC089500240A94161617061806090669
S1132230089500240A941216130614060506089538
S1132240092E0394000C11F4882352F0BB0F40F4C0
S1132250BF2B11F460FF04C06F5F7F4F8F4F9F4F00
S1132260089557FD9058440F551F59F05F3F71F082
S11322704795880F97FB991F61F09F3F79F08795E9
S11322800895121613061406551FF2CF4695F1DF72
S113229008C0161617061806991FF1CF8695710502
S11322A0610508940895E894BB2766277727CB0136
S11322B097F9089597FB072E16F4009406D077FD3E
S11322C008D020D007FC05D03EF4909581959F4F0F
S11322D00895709561957F4F0895EE0FFF1F059047
S11322E0F491E02D0994A29FB001B39FC001A39F74
S11322F0700D811D1124911DB29F700D811D11243B
S1132300911D0895AA1BBB1B51E107C0AA1FBB1F47
S1132310A617B70710F0A61BB70B881F991F5A956D
S1132320A9F780959095BC01CD010895F894FFCF4D
S11323307350FF776E78003F065B4F666D7D077FB5
S10523406F0028
S9030000FC
