S00B00004144432E7372656351
S113000045C0000060C000005EC000005CC000008D
S11300105AC0000058C0000056C0000054C0000080
S11300200FC1000050C000004EC000004CC00000D2
S1130030F0C0000048C0000046C000003EC10000FF
S113004042C0000040C000003EC000003CC00000B0
S11300503AC000008AC0000036C0000034C000006E
S113006032C0000030C000002EC000002CC00000D0
S11300702AC0000028C0000037C1000024C00000CE
S113008022C0000020C000001EC0000011241FBEBA
S1130090CFEFD0E1DEBFCDBF11E0A0E0B1E0E6ECF0
S11300A0F4E000E00BBF02C007900D92A830B10746
S11300B0D9F722E0A8E0B1E001C01D92A132B20755
S11300C0E1F73AD1FEC19CCF1BBA8FEF8ABB18BAB5
S11300D087BB15BA84BB12BA8BEB81BB13B88FEB09
S11300E082B9109262001092610008959093980072
S11300F08093990088E980939A008EE080939D0014
S113010008958DEC86B980E487B9089580E88FBDA1
S11301108EB588608EBD1DBC1CBC17BC16BC86E0A9
S11301208BBD80E48ABD19BC18BC10927900109272
S113013078008EB589608EBD87B7806187BF0895CA
S113014083B7886283BF12BE8FEF81BF10BE87B7AB
S1130150826087BF83B78B6283BF089510926A0061
S113016080EA8ABF80EC89BF08951F920F920FB670
S11301700F9211248F939F9380911301882319F078
S1130180813069F016C084B195B190930D018093CC
S11301900C0181E487B981E0809313010AC084B122
S11301A095B190930B0180930A0180E487B9109272
S11301B01301369A9F918F910F900FBE0F901F904D
S11301C01895DF92EF92FF920F931F93CF93DF93D3
S11301D0D62EFC0101900020E9F731977F01E81A3F
S11301E0F90A1E141F045CF48C01C0E0D0E0F8018D
S11301F081918F012BD12196EC16FD06C1F78D2D2F
S113020025D1DF91CF911F910F91FF90EF90DF9057
S113021008951F920F920FB60F9211248F939F93FC
S11302208091100190911101019690931101809396
S113023010019F918F910F900FBE0F901F901895F2
S11302401F920F920FB60F9211240BB60F922F9399
S11302503F934F935F936F937F938F939F93AF934A
S1130260BF93EF93FF938091080190910901019648
S11302709093090180930801069764F08AE2E6D01E
S11302808FE39CE90197F1F700C000001092090187
S113029010920801FF91EF91BF91AF919F918F91BF
S11302A07F916F915F914F913F912F910F900BBE72
S11302B00F900FBE0F901F9018951F920F920FB6BC
S11302C00F9211248F939F9380910E0190910F01AF
S11302D0019690930F0180930E019F918F910F903F
S11302E00FBE0F901F9018951F920F920FB60F928A
S11302F011240BB60F922F933F934F935F936F93F9
S11303007F938F939F93AF93BF93EF93FF93A6D065
S1130310C2D0FF91EF91BF91AF919F918F917F9147
S11303206F915F914F913F912F910F900BBE0F9062
S11303300FBE0F901F901895C7DE87E690E0D6DEBB
S1130340E0DEFEDEE3DE0ADF6DE080E091E039DF2F
S1130350789420E030E0C6E1D1E007E111E00F2E0F
S1130360FAE0CF2EF1E0DF2EF02D0F2EFCE0EF2E81
S1130370F1E0FF2EF02D8FE891E00197F1F700C036
S1130380000080911502909116020197A1F7F901DE
S1130390EA5EFE4F80818D3009F055C0888181343A
S11303A009F046C0F8018081823419F118F48134CF
S11303B031F039C0853481F0863441F134C081E4B0
S11303C045D081E443D080910D015BD0F701808159
S11303D058D08DE03BD030C081E438D085E436D0AD
S11303E080910D014ED0F70180814BD08DE02ED04D
S11303F023C081E42BD082E429D080910B0141D029
S1130400F60180813ED08DE021D016C081E41ED05B
S113041086E41CD080910B0134D0F601808131D068
S11304208DE014D009C06DE086E091E0CADE04C01E
S11304306DE086E091E0C5DE10921602109215027E
S113044020E030E098CF2F5F3F4F95CFEBE9F0E00D
S1130450908195FFFDCF80939C000895EBE9F0E037
S113046080818823ECF780919C0008958A3028F4D9
S1130470805D01C0895CEACF08958031D8F380E2C1
S1130480FACFCF93C82F82958F70F0DF8C2F8F70A7
S1130490EDDFCF91089590911201E92FF0E0EA5E2B
S11304A0FE4F80838D3049F481E090E090931602F2
S11304B0809315021092120108959F5F9093120188
S10904C00895F894FFCF3B
S10B04C668656C6C6F003F00D7
S9030000FC
